{
  "_format": "hh-sol-artifact-1",
  "contractName": "BasketFactory",
  "sourceName": "contracts/BasketFactory.sol",
  "abi": [
    {
      "inputs": [],
      "stateMutability": "nonpayable",
      "type": "constructor"
    },
    {
      "anonymous": false,
      "inputs": [
        {
          "indexed": true,
          "internalType": "address",
          "name": "basketAddress",
          "type": "address"
        },
        {
          "indexed": true,
          "internalType": "address",
          "name": "owner",
          "type": "address"
        }
      ],
      "name": "BasketDeployed",
      "type": "event"
    },
    {
      "anonymous": false,
      "inputs": [
        {
          "indexed": false,
          "internalType": "uint8",
          "name": "version",
          "type": "uint8"
        }
      ],
      "name": "Initialized",
      "type": "event"
    },
    {
      "anonymous": false,
      "inputs": [
        {
          "indexed": true,
          "internalType": "address",
          "name": "previousOwner",
          "type": "address"
        },
        {
          "indexed": true,
          "internalType": "address",
          "name": "newOwner",
          "type": "address"
        }
      ],
      "name": "OwnershipTransferred",
      "type": "event"
    },
    {
      "inputs": [],
      "name": "adminOperationsAddr",
      "outputs": [
        {
          "internalType": "address",
          "name": "",
          "type": "address"
        }
      ],
      "stateMutability": "view",
      "type": "function"
    },
    {
      "inputs": [
        {
          "internalType": "string",
          "name": "name",
          "type": "string"
        },
        {
          "internalType": "string",
          "name": "symbol",
          "type": "string"
        },
        {
          "internalType": "string",
          "name": "basketMetaData",
          "type": "string"
        },
        {
          "internalType": "address",
          "name": "adminOperationsAddress",
          "type": "address"
        }
      ],
      "name": "createBasket",
      "outputs": [],
      "stateMutability": "nonpayable",
      "type": "function"
    },
    {
      "inputs": [
        {
          "internalType": "uint256",
          "name": "",
          "type": "uint256"
        }
      ],
      "name": "deployedBaskets",
      "outputs": [
        {
          "internalType": "address",
          "name": "",
          "type": "address"
        }
      ],
      "stateMutability": "view",
      "type": "function"
    },
    {
      "inputs": [],
      "name": "getDeployedBaskets",
      "outputs": [
        {
          "internalType": "address[]",
          "name": "",
          "type": "address[]"
        }
      ],
      "stateMutability": "view",
      "type": "function"
    },
    {
      "inputs": [
        {
          "internalType": "address",
          "name": "newadminOperationsAdd",
          "type": "address"
        }
      ],
      "name": "initialize",
      "outputs": [],
      "stateMutability": "nonpayable",
      "type": "function"
    },
    {
      "inputs": [],
      "name": "owner",
      "outputs": [
        {
          "internalType": "address",
          "name": "",
          "type": "address"
        }
      ],
      "stateMutability": "view",
      "type": "function"
    },
    {
      "inputs": [],
      "name": "renounceOwnership",
      "outputs": [],
      "stateMutability": "nonpayable",
      "type": "function"
    },
    {
      "inputs": [
        {
          "internalType": "address",
          "name": "newOwner",
          "type": "address"
        }
      ],
      "name": "transferOwnership",
      "outputs": [],
      "stateMutability": "nonpayable",
      "type": "function"
    }
  ],
  "bytecode": "0x60806040523480156200001157600080fd5b50620000226200002860201b60201c565b620001d2565b600060019054906101000a900460ff16156200007b576040517f08c379a0000000000000000000000000000000000000000000000000000000008152600401620000729062000126565b60405180910390fd5b60ff801660008054906101000a900460ff1660ff1614620000ec5760ff6000806101000a81548160ff021916908360ff1602179055507f7f26b83ff96e1f2b6a682f133852f6798a09c465da95921460cefb384740249860ff604051620000e3919062000148565b60405180910390a15b565b6000620000fd60278362000165565b91506200010a8262000183565b604082019050919050565b620001208162000176565b82525050565b600060208201905081810360008301526200014181620000ee565b9050919050565b60006020820190506200015f600083018462000115565b92915050565b600082825260208201905092915050565b600060ff82169050919050565b7f496e697469616c697a61626c653a20636f6e747261637420697320696e69746960008201527f616c697a696e6700000000000000000000000000000000000000000000000000602082015250565b614f3380620001e26000396000f3fe60806040523480156200001157600080fd5b5060043610620000945760003560e01c80638da5cb5b11620000635780638da5cb5b146200011d578063c4d66de8146200013f578063ee8e15d9146200015f578063f2fde38b14620001815762000094565b8063117be85914620000995780631a24082a14620000bb578063715018a614620000f15780637adaaac514620000fd575b600080fd5b620000a3620001a1565b604051620000b2919062000ba5565b60405180910390f35b620000d96004803603810190620000d39190620009c8565b62000231565b604051620000e8919062000b88565b60405180910390f35b620000fb62000271565b005b6200011b600480360381019062000115919062000911565b62000289565b005b6200012762000392565b60405162000136919062000b88565b60405180910390f35b6200015d6004803603810190620001579190620008e5565b620003bc565b005b620001696200054a565b60405162000178919062000b88565b60405180910390f35b6200019f6004803603810190620001999190620008e5565b62000570565b005b606060658054806020026020016040519081016040528092919081815260200182805480156200022757602002820191906000526020600020905b8160009054906101000a900473ffffffffffffffffffffffffffffffffffffffff1673ffffffffffffffffffffffffffffffffffffffff1681526020019060010190808311620001dc575b5050505050905090565b606581815481106200024257600080fd5b906000526020600020016000915054906101000a900473ffffffffffffffffffffffffffffffffffffffff1681565b6200027b620005fb565b62000287600062000680565b565b600084848484336040516200029e9062000837565b620002ae95949392919062000be6565b604051809103906000f080158015620002cb573d6000803e3d6000fd5b5090506065819080600181540180825580915050600190039060005260206000200160009091909190916101000a81548173ffffffffffffffffffffffffffffffffffffffff021916908373ffffffffffffffffffffffffffffffffffffffff1602179055503373ffffffffffffffffffffffffffffffffffffffff168173ffffffffffffffffffffffffffffffffffffffff167f5490e0bcc56f744855469a6ed41898b8719067e6a3c8dd1e8d97dfaf662b698060405160405180910390a35050505050565b6000603360009054906101000a900473ffffffffffffffffffffffffffffffffffffffff16905090565b60008060019054906101000a900460ff16159050808015620003ee5750600160008054906101000a900460ff1660ff16105b806200041f5750620004003062000746565b1580156200041e5750600160008054906101000a900460ff1660ff16145b5b62000461576040517f08c379a0000000000000000000000000000000000000000000000000000000008152600401620004589062000c7a565b60405180910390fd5b60016000806101000a81548160ff021916908360ff16021790555080156200049f576001600060016101000a81548160ff0219169083151502179055505b81606660006101000a81548173ffffffffffffffffffffffffffffffffffffffff021916908373ffffffffffffffffffffffffffffffffffffffff160217905550620004ea62000769565b8015620005465760008060016101000a81548160ff0219169083151502179055507f7f26b83ff96e1f2b6a682f133852f6798a09c465da95921460cefb384740249860016040516200053d919062000bc9565b60405180910390a15b5050565b606660009054906101000a900473ffffffffffffffffffffffffffffffffffffffff1681565b6200057a620005fb565b600073ffffffffffffffffffffffffffffffffffffffff168173ffffffffffffffffffffffffffffffffffffffff161415620005ed576040517f08c379a0000000000000000000000000000000000000000000000000000000008152600401620005e49062000c58565b60405180910390fd5b620005f88162000680565b50565b62000605620007c7565b73ffffffffffffffffffffffffffffffffffffffff166200062562000392565b73ffffffffffffffffffffffffffffffffffffffff16146200067e576040517f08c379a0000000000000000000000000000000000000000000000000000000008152600401620006759062000c9c565b60405180910390fd5b565b6000603360009054906101000a900473ffffffffffffffffffffffffffffffffffffffff16905081603360006101000a81548173ffffffffffffffffffffffffffffffffffffffff021916908373ffffffffffffffffffffffffffffffffffffffff1602179055508173ffffffffffffffffffffffffffffffffffffffff168173ffffffffffffffffffffffffffffffffffffffff167f8be0079c531659141344cd1fd0a4f28419497f9722a3daafe3b4186f6b6457e060405160405180910390a35050565b6000808273ffffffffffffffffffffffffffffffffffffffff163b119050919050565b600060019054906101000a900460ff16620007bb576040517f08c379a0000000000000000000000000000000000000000000000000000000008152600401620007b29062000cbe565b60405180910390fd5b620007c5620007cf565b565b600033905090565b600060019054906101000a900460ff1662000821576040517f08c379a0000000000000000000000000000000000000000000000000000000008152600401620008189062000cbe565b60405180910390fd5b620008356200082f620007c7565b62000680565b565b613f058062000ff983390190565b60006200085c620008568462000d09565b62000ce0565b9050828152602081018484840111156200087557600080fd5b6200088284828562000df3565b509392505050565b6000813590506200089b8162000fc4565b92915050565b600082601f830112620008b357600080fd5b8135620008c584826020860162000845565b91505092915050565b600081359050620008df8162000fde565b92915050565b600060208284031215620008f857600080fd5b600062000908848285016200088a565b91505092915050565b600080600080608085870312156200092857600080fd5b600085013567ffffffffffffffff8111156200094357600080fd5b6200095187828801620008a1565b945050602085013567ffffffffffffffff8111156200096f57600080fd5b6200097d87828801620008a1565b935050604085013567ffffffffffffffff8111156200099b57600080fd5b620009a987828801620008a1565b9250506060620009bc878288016200088a565b91505092959194509250565b600060208284031215620009db57600080fd5b6000620009eb84828501620008ce565b91505092915050565b600062000a02838362000a0e565b60208301905092915050565b62000a198162000d94565b82525050565b62000a2a8162000d94565b82525050565b600062000a3d8262000d4f565b62000a49818562000d72565b935062000a568362000d3f565b8060005b8381101562000a8d57815162000a718882620009f4565b975062000a7e8362000d65565b92505060018101905062000a5a565b5085935050505092915050565b62000aa58162000ddf565b82525050565b600062000ab88262000d5a565b62000ac4818562000d83565b935062000ad681856020860162000e02565b62000ae18162000e9d565b840191505092915050565b600062000afb60268362000d83565b915062000b088262000eae565b604082019050919050565b600062000b22602e8362000d83565b915062000b2f8262000efd565b604082019050919050565b600062000b4960208362000d83565b915062000b568262000f4c565b602082019050919050565b600062000b70602b8362000d83565b915062000b7d8262000f75565b604082019050919050565b600060208201905062000b9f600083018462000a1f565b92915050565b6000602082019050818103600083015262000bc1818462000a30565b905092915050565b600060208201905062000be0600083018462000a9a565b92915050565b600060a082019050818103600083015262000c02818862000aab565b9050818103602083015262000c18818762000aab565b9050818103604083015262000c2e818662000aab565b905062000c3f606083018562000a1f565b62000c4e608083018462000a1f565b9695505050505050565b6000602082019050818103600083015262000c738162000aec565b9050919050565b6000602082019050818103600083015262000c958162000b13565b9050919050565b6000602082019050818103600083015262000cb78162000b3a565b9050919050565b6000602082019050818103600083015262000cd98162000b61565b9050919050565b600062000cec62000cff565b905062000cfa828262000e38565b919050565b6000604051905090565b600067ffffffffffffffff82111562000d275762000d2662000e6e565b5b62000d328262000e9d565b9050602081019050919050565b6000819050602082019050919050565b600081519050919050565b600081519050919050565b6000602082019050919050565b600082825260208201905092915050565b600082825260208201905092915050565b600062000da18262000da8565b9050919050565b600073ffffffffffffffffffffffffffffffffffffffff82169050919050565b6000819050919050565b600060ff82169050919050565b600062000dec8262000dd2565b9050919050565b82818337600083830152505050565b60005b8381101562000e2257808201518184015260208101905062000e05565b8381111562000e32576000848401525b50505050565b62000e438262000e9d565b810181811067ffffffffffffffff8211171562000e655762000e6462000e6e565b5b80604052505050565b7f4e487b7100000000000000000000000000000000000000000000000000000000600052604160045260246000fd5b6000601f19601f8301169050919050565b7f4f776e61626c653a206e6577206f776e657220697320746865207a65726f206160008201527f6464726573730000000000000000000000000000000000000000000000000000602082015250565b7f496e697469616c697a61626c653a20636f6e747261637420697320616c72656160008201527f647920696e697469616c697a6564000000000000000000000000000000000000602082015250565b7f4f776e61626c653a2063616c6c6572206973206e6f7420746865206f776e6572600082015250565b7f496e697469616c697a61626c653a20636f6e7472616374206973206e6f74206960008201527f6e697469616c697a696e67000000000000000000000000000000000000000000602082015250565b62000fcf8162000d94565b811462000fdb57600080fd5b50565b62000fe98162000dc8565b811462000ff557600080fd5b5056fe60806040523480156200001157600080fd5b5060405162003f0538038062003f0583398181016040528101906200003791906200080b565b8460fb90805190602001906200004f929190620006d2565b508360fc908051906020019062000068929190620006d2565b508260fe908051906020019062000081929190620006d2565b508160fd60006101000a81548173ffffffffffffffffffffffffffffffffffffffff021916908373ffffffffffffffffffffffffffffffffffffffff1602179055508060ff60006101000a81548173ffffffffffffffffffffffffffffffffffffffff021916908373ffffffffffffffffffffffffffffffffffffffff160217905550620001146200012f60201b60201c565b62000124620003d260201b60201c565b505050505062000cec565b60008060019054906101000a900460ff16159050808015620001615750600160008054906101000a900460ff1660ff16105b806200019d57506200017e306200049860201b620014f11760201c565b1580156200019c5750600160008054906101000a900460ff1660ff16145b5b620001df576040517f08c379a0000000000000000000000000000000000000000000000000000000008152600401620001d6906200098c565b60405180910390fd5b60016000806101000a81548160ff021916908360ff16021790555080156200021d576001600060016101000a81548160ff0219169083151502179055505b6200035360fb8054620002309062000b0a565b80601f01602080910402602001604051908101604052809291908181526020018280546200025e9062000b0a565b8015620002af5780601f106200028357610100808354040283529160200191620002af565b820191906000526020600020905b8154815290600101906020018083116200029157829003601f168201915b505050505060fc8054620002c39062000b0a565b80601f0160208091040260200160405190810160405280929190818152602001828054620002f19062000b0a565b8015620003425780601f10620003165761010080835404028352916020019162000342565b820191906000526020600020905b8154815290600101906020018083116200032457829003601f168201915b5050505050620004bb60201b60201c565b620003636200052360201b60201c565b620003736200057760201b60201c565b8015620003cf5760008060016101000a81548160ff0219169083151502179055507f7f26b83ff96e1f2b6a682f133852f6798a09c465da95921460cefb38474024986001604051620003c691906200096f565b60405180910390a15b50565b600060019054906101000a900460ff161562000425576040517f08c379a00000000000000000000000000000000000000000000000000000000081526004016200041c90620009ae565b60405180910390fd5b60ff801660008054906101000a900460ff1660ff1614620004965760ff6000806101000a81548160ff021916908360ff1602179055507f7f26b83ff96e1f2b6a682f133852f6798a09c465da95921460cefb384740249860ff6040516200048d9190620009f2565b60405180910390a15b565b6000808273ffffffffffffffffffffffffffffffffffffffff163b119050919050565b600060019054906101000a900460ff166200050d576040517f08c379a00000000000000000000000000000000000000000000000000000000081526004016200050490620009d0565b60405180910390fd5b6200051f8282620005db60201b60201c565b5050565b600060019054906101000a900460ff1662000575576040517f08c379a00000000000000000000000000000000000000000000000000000000081526004016200056c90620009d0565b60405180910390fd5b565b600060019054906101000a900460ff16620005c9576040517f08c379a0000000000000000000000000000000000000000000000000000000008152600401620005c090620009d0565b60405180910390fd5b620005d96200066360201b60201c565b565b600060019054906101000a900460ff166200062d576040517f08c379a00000000000000000000000000000000000000000000000000000000081526004016200062490620009d0565b60405180910390fd5b816036908051906020019062000645929190620006d2565b5080603790805190602001906200065e929190620006d2565b505050565b600060019054906101000a900460ff16620006b5576040517f08c379a0000000000000000000000000000000000000000000000000000000008152600401620006ac90620009d0565b60405180910390fd5b6000609760006101000a81548160ff021916908315150217905550565b828054620006e09062000b0a565b90600052602060002090601f01602090048101928262000704576000855562000750565b82601f106200071f57805160ff191683800117855562000750565b8280016001018555821562000750579182015b828111156200074f57825182559160200191906001019062000732565b5b5090506200075f919062000763565b5090565b5b808211156200077e57600081600090555060010162000764565b5090565b600062000799620007938462000a38565b62000a0f565b905082815260208101848484011115620007b257600080fd5b620007bf84828562000ad4565b509392505050565b600081519050620007d88162000cd2565b92915050565b600082601f830112620007f057600080fd5b81516200080284826020860162000782565b91505092915050565b600080600080600060a086880312156200082457600080fd5b600086015167ffffffffffffffff8111156200083f57600080fd5b6200084d88828901620007de565b955050602086015167ffffffffffffffff8111156200086b57600080fd5b6200087988828901620007de565b945050604086015167ffffffffffffffff8111156200089757600080fd5b620008a588828901620007de565b9350506060620008b888828901620007c7565b9250506080620008cb88828901620007c7565b9150509295509295909350565b620008e38162000ac0565b82525050565b6000620008f8602e8362000a6e565b9150620009058262000be5565b604082019050919050565b60006200091f60278362000a6e565b91506200092c8262000c34565b604082019050919050565b600062000946602b8362000a6e565b9150620009538262000c83565b604082019050919050565b620009698162000ab3565b82525050565b6000602082019050620009866000830184620008d8565b92915050565b60006020820190508181036000830152620009a781620008e9565b9050919050565b60006020820190508181036000830152620009c98162000910565b9050919050565b60006020820190508181036000830152620009eb8162000937565b9050919050565b600060208201905062000a0960008301846200095e565b92915050565b600062000a1b62000a2e565b905062000a29828262000b40565b919050565b6000604051905090565b600067ffffffffffffffff82111562000a565762000a5562000ba5565b5b62000a618262000bd4565b9050602081019050919050565b600082825260208201905092915050565b600062000a8c8262000a93565b9050919050565b600073ffffffffffffffffffffffffffffffffffffffff82169050919050565b600060ff82169050919050565b600062000acd8262000ab3565b9050919050565b60005b8381101562000af457808201518184015260208101905062000ad7565b8381111562000b04576000848401525b50505050565b6000600282049050600182168062000b2357607f821691505b6020821081141562000b3a5762000b3962000b76565b5b50919050565b62000b4b8262000bd4565b810181811067ffffffffffffffff8211171562000b6d5762000b6c62000ba5565b5b80604052505050565b7f4e487b7100000000000000000000000000000000000000000000000000000000600052602260045260246000fd5b7f4e487b7100000000000000000000000000000000000000000000000000000000600052604160045260246000fd5b6000601f19601f8301169050919050565b7f496e697469616c697a61626c653a20636f6e747261637420697320616c72656160008201527f647920696e697469616c697a6564000000000000000000000000000000000000602082015250565b7f496e697469616c697a61626c653a20636f6e747261637420697320696e69746960008201527f616c697a696e6700000000000000000000000000000000000000000000000000602082015250565b7f496e697469616c697a61626c653a20636f6e7472616374206973206e6f74206960008201527f6e697469616c697a696e67000000000000000000000000000000000000000000602082015250565b62000cdd8162000a7f565b811462000ce957600080fd5b50565b6132098062000cfc6000396000f3fe608060405234801561001057600080fd5b50600436106101735760003560e01c806370a08231116100de5780639dc29fac11610097578063b8bba0f811610071578063b8bba0f814610414578063ce606ee014610432578063dd62ed3e14610450578063f3918ecb1461048057610173565b80639dc29fac14610398578063a457c2d7146103b4578063a9059cbb146103e457610173565b806370a08231146102fc57806379cc67901461032c5780637db05cb2146103485780638129fc1c146103665780638456cb591461037057806395d89b411461037a57610173565b80633f4ba83a116101305780633f4ba83a1461026257806340c10f191461026c57806342966c68146102885780635c975abb146102a45780635da2794a146102c257806364c16405146102de57610173565b806306fdde0314610178578063095ea7b31461019657806318160ddd146101c657806323b872dd146101e4578063313ce567146102145780633950935114610232575b600080fd5b61018061049e565b60405161018d9190612760565b60405180910390f35b6101b060048036038101906101ab91906122db565b610530565b6040516101bd919061272a565b60405180910390f35b6101ce610553565b6040516101db91906129e2565b60405180910390f35b6101fe60048036038101906101f9919061228c565b61055d565b60405161020b919061272a565b60405180910390f35b61021c61080f565b60405161022991906129fd565b60405180910390f35b61024c600480360381019061024791906122db565b610818565b604051610259919061272a565b60405180910390f35b61026a61084f565b005b610286600480360381019061028191906122db565b6108e9565b005b6102a2600480360381019061029d9190612381565b610a78565b005b6102ac610a8c565b6040516102b9919061272a565b60405180910390f35b6102dc60048036038101906102d79190612340565b610aa3565b005b6102e6610b8f565b6040516102f3919061270f565b60405180910390f35b61031660048036038101906103119190612227565b610bb5565b60405161032391906129e2565b60405180910390f35b610346600480360381019061034191906122db565b610bfe565b005b610350610c1e565b60405161035d9190612760565b60405180910390f35b61036e610cac565b005b610378610f10565b005b610382610faa565b60405161038f9190612760565b60405180910390f35b6103b260048036038101906103ad91906122db565b61103c565b005b6103ce60048036038101906103c991906122db565b6110da565b6040516103db919061272a565b60405180910390f35b6103fe60048036038101906103f991906122db565b611151565b60405161040b919061272a565b60405180910390f35b61041c611328565b6040516104299190612760565b60405180910390f35b61043a6113b6565b604051610447919061270f565b60405180910390f35b61046a60048036038101906104659190612250565b6113dc565b60405161047791906129e2565b60405180910390f35b610488611463565b6040516104959190612760565b60405180910390f35b6060603680546104ad90612b94565b80601f01602080910402602001604051908101604052809291908181526020018280546104d990612b94565b80156105265780601f106104fb57610100808354040283529160200191610526565b820191906000526020600020905b81548152906001019060200180831161050957829003601f168201915b5050505050905090565b60008061053b611514565b905061054881858561151c565b600191505092915050565b6000603554905090565b60008060fd60009054906101000a900473ffffffffffffffffffffffffffffffffffffffff1690508073ffffffffffffffffffffffffffffffffffffffff1663e47d6060336040518263ffffffff1660e01b81526004016105be919061270f565b60206040518083038186803b1580156105d657600080fd5b505afa1580156105ea573d6000803e3d6000fd5b505050506040513d601f19601f8201168201806040525081019061060e9190612317565b1561064e576040517f08c379a000000000000000000000000000000000000000000000000000000000815260040161064590612942565b60405180910390fd5b8073ffffffffffffffffffffffffffffffffffffffff1663e47d6060866040518263ffffffff1660e01b8152600401610687919061270f565b60206040518083038186803b15801561069f57600080fd5b505afa1580156106b3573d6000803e3d6000fd5b505050506040513d601f19601f820116820180604052508101906106d79190612317565b15610717576040517f08c379a000000000000000000000000000000000000000000000000000000000815260040161070e90612802565b60405180910390fd5b8073ffffffffffffffffffffffffffffffffffffffff1663e47d6060856040518263ffffffff1660e01b8152600401610750919061270f565b60206040518083038186803b15801561076857600080fd5b505afa15801561077c573d6000803e3d6000fd5b505050506040513d601f19601f820116820180604052508101906107a09190612317565b156107e0576040517f08c379a00000000000000000000000000000000000000000000000000000000081526004016107d790612862565b60405180910390fd5b60006107ea611514565b90506107f78682866116e7565b610802868686611773565b6001925050509392505050565b60006006905090565b600080610823611514565b905061084481858561083585896113dc565b61083f9190612a95565b61151c565b600191505092915050565b60ff60009054906101000a900473ffffffffffffffffffffffffffffffffffffffff1673ffffffffffffffffffffffffffffffffffffffff163373ffffffffffffffffffffffffffffffffffffffff16146108df576040517f08c379a00000000000000000000000000000000000000000000000000000000081526004016108d690612882565b60405180910390fd5b6108e76119ee565b565b60ff60009054906101000a900473ffffffffffffffffffffffffffffffffffffffff1673ffffffffffffffffffffffffffffffffffffffff163373ffffffffffffffffffffffffffffffffffffffff1614610979576040517f08c379a000000000000000000000000000000000000000000000000000000000815260040161097090612882565b60405180910390fd5b600060fd60009054906101000a900473ffffffffffffffffffffffffffffffffffffffff1690508073ffffffffffffffffffffffffffffffffffffffff1663e47d6060846040518263ffffffff1660e01b81526004016109d9919061270f565b60206040518083038186803b1580156109f157600080fd5b505afa158015610a05573d6000803e3d6000fd5b505050506040513d601f19601f82011682018060405250810190610a299190612317565b15610a69576040517f08c379a0000000000000000000000000000000000000000000000000000000008152600401610a6090612862565b60405180910390fd5b610a738383611a51565b505050565b610a89610a83611514565b82611ba9565b50565b6000609760009054906101000a900460ff16905090565b60ff60009054906101000a900473ffffffffffffffffffffffffffffffffffffffff1673ffffffffffffffffffffffffffffffffffffffff163373ffffffffffffffffffffffffffffffffffffffff1614610b33576040517f08c379a0000000000000000000000000000000000000000000000000000000008152600401610b2a90612882565b60405180910390fd5b8060fe9080519060200190610b499291906120dd565b5080604051610b5891906126f8565b60405180910390207f1c306e70c05992619e2128ad1ef88df75f36c9476282e59f51401b2abaa42e4e60405160405180910390a250565b60fd60009054906101000a900473ffffffffffffffffffffffffffffffffffffffff1681565b6000603360008373ffffffffffffffffffffffffffffffffffffffff1673ffffffffffffffffffffffffffffffffffffffff168152602001908152602001600020549050919050565b610c1082610c0a611514565b836116e7565b610c1a8282611ba9565b5050565b60fc8054610c2b90612b94565b80601f0160208091040260200160405190810160405280929190818152602001828054610c5790612b94565b8015610ca45780601f10610c7957610100808354040283529160200191610ca4565b820191906000526020600020905b815481529060010190602001808311610c8757829003601f168201915b505050505081565b60008060019054906101000a900460ff16159050808015610cdd5750600160008054906101000a900460ff1660ff16105b80610d0a5750610cec306114f1565b158015610d095750600160008054906101000a900460ff1660ff16145b5b610d49576040517f08c379a0000000000000000000000000000000000000000000000000000000008152600401610d40906128c2565b60405180910390fd5b60016000806101000a81548160ff021916908360ff1602179055508015610d86576001600060016101000a81548160ff0219169083151502179055505b610ea460fb8054610d9690612b94565b80601f0160208091040260200160405190810160405280929190818152602001828054610dc290612b94565b8015610e0f5780601f10610de457610100808354040283529160200191610e0f565b820191906000526020600020905b815481529060010190602001808311610df257829003601f168201915b505050505060fc8054610e2190612b94565b80601f0160208091040260200160405190810160405280929190818152602001828054610e4d90612b94565b8015610e9a5780601f10610e6f57610100808354040283529160200191610e9a565b820191906000526020600020905b815481529060010190602001808311610e7d57829003601f168201915b5050505050611d79565b610eac611dd6565b610eb4611e27565b8015610f0d5760008060016101000a81548160ff0219169083151502179055507f7f26b83ff96e1f2b6a682f133852f6798a09c465da95921460cefb38474024986001604051610f049190612745565b60405180910390a15b50565b60ff60009054906101000a900473ffffffffffffffffffffffffffffffffffffffff1673ffffffffffffffffffffffffffffffffffffffff163373ffffffffffffffffffffffffffffffffffffffff1614610fa0576040517f08c379a0000000000000000000000000000000000000000000000000000000008152600401610f9790612882565b60405180910390fd5b610fa8611e80565b565b606060378054610fb990612b94565b80601f0160208091040260200160405190810160405280929190818152602001828054610fe590612b94565b80156110325780601f1061100757610100808354040283529160200191611032565b820191906000526020600020905b81548152906001019060200180831161101557829003601f168201915b5050505050905090565b60ff60009054906101000a900473ffffffffffffffffffffffffffffffffffffffff1673ffffffffffffffffffffffffffffffffffffffff163373ffffffffffffffffffffffffffffffffffffffff16146110cc576040517f08c379a00000000000000000000000000000000000000000000000000000000081526004016110c390612882565b60405180910390fd5b6110d68282611ba9565b5050565b6000806110e5611514565b905060006110f382866113dc565b905083811015611138576040517f08c379a000000000000000000000000000000000000000000000000000000000815260040161112f90612982565b60405180910390fd5b611145828686840361151c565b60019250505092915050565b60008060fd60009054906101000a900473ffffffffffffffffffffffffffffffffffffffff1690508073ffffffffffffffffffffffffffffffffffffffff1663e47d6060336040518263ffffffff1660e01b81526004016111b2919061270f565b60206040518083038186803b1580156111ca57600080fd5b505afa1580156111de573d6000803e3d6000fd5b505050506040513d601f19601f820116820180604052508101906112029190612317565b15611242576040517f08c379a000000000000000000000000000000000000000000000000000000000815260040161123990612802565b60405180910390fd5b8073ffffffffffffffffffffffffffffffffffffffff1663e47d6060856040518263ffffffff1660e01b815260040161127b919061270f565b60206040518083038186803b15801561129357600080fd5b505afa1580156112a7573d6000803e3d6000fd5b505050506040513d601f19601f820116820180604052508101906112cb9190612317565b1561130b576040517f08c379a000000000000000000000000000000000000000000000000000000000815260040161130290612862565b60405180910390fd5b61131d611316611514565b8585611773565b600191505092915050565b60fe805461133590612b94565b80601f016020809104026020016040519081016040528092919081815260200182805461136190612b94565b80156113ae5780601f10611383576101008083540402835291602001916113ae565b820191906000526020600020905b81548152906001019060200180831161139157829003601f168201915b505050505081565b60ff60009054906101000a900473ffffffffffffffffffffffffffffffffffffffff1681565b6000603460008473ffffffffffffffffffffffffffffffffffffffff1673ffffffffffffffffffffffffffffffffffffffff16815260200190815260200160002060008373ffffffffffffffffffffffffffffffffffffffff1673ffffffffffffffffffffffffffffffffffffffff16815260200190815260200160002054905092915050565b60fb805461147090612b94565b80601f016020809104026020016040519081016040528092919081815260200182805461149c90612b94565b80156114e95780601f106114be576101008083540402835291602001916114e9565b820191906000526020600020905b8154815290600101906020018083116114cc57829003601f168201915b505050505081565b6000808273ffffffffffffffffffffffffffffffffffffffff163b119050919050565b600033905090565b600073ffffffffffffffffffffffffffffffffffffffff168373ffffffffffffffffffffffffffffffffffffffff16141561158c576040517f08c379a000000000000000000000000000000000000000000000000000000000815260040161158390612922565b60405180910390fd5b600073ffffffffffffffffffffffffffffffffffffffff168273ffffffffffffffffffffffffffffffffffffffff1614156115fc576040517f08c379a00000000000000000000000000000000000000000000000000000000081526004016115f3906127e2565b60405180910390fd5b80603460008573ffffffffffffffffffffffffffffffffffffffff1673ffffffffffffffffffffffffffffffffffffffff16815260200190815260200160002060008473ffffffffffffffffffffffffffffffffffffffff1673ffffffffffffffffffffffffffffffffffffffff168152602001908152602001600020819055508173ffffffffffffffffffffffffffffffffffffffff168373ffffffffffffffffffffffffffffffffffffffff167f8c5be1e5ebec7d5bd14f71427d1e84f3dd0314c0f7b2291e5b200ac8c7c3b925836040516116da91906129e2565b60405180910390a3505050565b60006116f384846113dc565b90507fffffffffffffffffffffffffffffffffffffffffffffffffffffffffffffffff811461176d578181101561175f576040517f08c379a000000000000000000000000000000000000000000000000000000000815260040161175690612822565b60405180910390fd5b61176c848484840361151c565b5b50505050565b600073ffffffffffffffffffffffffffffffffffffffff168373ffffffffffffffffffffffffffffffffffffffff1614156117e3576040517f08c379a00000000000000000000000000000000000000000000000000000000081526004016117da90612902565b60405180910390fd5b600073ffffffffffffffffffffffffffffffffffffffff168273ffffffffffffffffffffffffffffffffffffffff161415611853576040517f08c379a000000000000000000000000000000000000000000000000000000000815260040161184a90612782565b60405180910390fd5b61185e838383611ee3565b6000603360008573ffffffffffffffffffffffffffffffffffffffff1673ffffffffffffffffffffffffffffffffffffffff168152602001908152602001600020549050818110156118e5576040517f08c379a00000000000000000000000000000000000000000000000000000000081526004016118dc90612842565b60405180910390fd5b818103603360008673ffffffffffffffffffffffffffffffffffffffff1673ffffffffffffffffffffffffffffffffffffffff1681526020019081526020016000208190555081603360008573ffffffffffffffffffffffffffffffffffffffff1673ffffffffffffffffffffffffffffffffffffffff168152602001908152602001600020600082825401925050819055508273ffffffffffffffffffffffffffffffffffffffff168473ffffffffffffffffffffffffffffffffffffffff167fddf252ad1be2c89b69c2b068fc378daa952ba7f163c4a11628f55a4df523b3ef846040516119d591906129e2565b60405180910390a36119e8848484611efb565b50505050565b6119f6611f00565b6000609760006101000a81548160ff0219169083151502179055507f5db9ee0a495bf2e6ff9c91a7834c1ba4fdd244a5e8aa4e537bd38aeae4b073aa611a3a611514565b604051611a47919061270f565b60405180910390a1565b600073ffffffffffffffffffffffffffffffffffffffff168273ffffffffffffffffffffffffffffffffffffffff161415611ac1576040517f08c379a0000000000000000000000000000000000000000000000000000000008152600401611ab8906129a2565b60405180910390fd5b611acd60008383611ee3565b8060356000828254611adf9190612a95565b9250508190555080603360008473ffffffffffffffffffffffffffffffffffffffff1673ffffffffffffffffffffffffffffffffffffffff168152602001908152602001600020600082825401925050819055508173ffffffffffffffffffffffffffffffffffffffff16600073ffffffffffffffffffffffffffffffffffffffff167fddf252ad1be2c89b69c2b068fc378daa952ba7f163c4a11628f55a4df523b3ef83604051611b9191906129e2565b60405180910390a3611ba560008383611efb565b5050565b600073ffffffffffffffffffffffffffffffffffffffff168273ffffffffffffffffffffffffffffffffffffffff161415611c19576040517f08c379a0000000000000000000000000000000000000000000000000000000008152600401611c10906128e2565b60405180910390fd5b611c2582600083611ee3565b6000603360008473ffffffffffffffffffffffffffffffffffffffff1673ffffffffffffffffffffffffffffffffffffffff16815260200190815260200160002054905081811015611cac576040517f08c379a0000000000000000000000000000000000000000000000000000000008152600401611ca3906127c2565b60405180910390fd5b818103603360008573ffffffffffffffffffffffffffffffffffffffff1673ffffffffffffffffffffffffffffffffffffffff1681526020019081526020016000208190555081603560008282540392505081905550600073ffffffffffffffffffffffffffffffffffffffff168373ffffffffffffffffffffffffffffffffffffffff167fddf252ad1be2c89b69c2b068fc378daa952ba7f163c4a11628f55a4df523b3ef84604051611d6091906129e2565b60405180910390a3611d7483600084611efb565b505050565b600060019054906101000a900460ff16611dc8576040517f08c379a0000000000000000000000000000000000000000000000000000000008152600401611dbf90612962565b60405180910390fd5b611dd28282611f49565b5050565b600060019054906101000a900460ff16611e25576040517f08c379a0000000000000000000000000000000000000000000000000000000008152600401611e1c90612962565b60405180910390fd5b565b600060019054906101000a900460ff16611e76576040517f08c379a0000000000000000000000000000000000000000000000000000000008152600401611e6d90612962565b60405180910390fd5b611e7e611fca565b565b611e88612036565b6001609760006101000a81548160ff0219169083151502179055507f62e78cea01bee320cd4e420270b5ea74000d11b0c9f74754ebdbfc544b05a258611ecc611514565b604051611ed9919061270f565b60405180910390a1565b611eeb612036565b611ef6838383612080565b505050565b505050565b611f08610a8c565b611f47576040517f08c379a0000000000000000000000000000000000000000000000000000000008152600401611f3e906127a2565b60405180910390fd5b565b600060019054906101000a900460ff16611f98576040517f08c379a0000000000000000000000000000000000000000000000000000000008152600401611f8f90612962565b60405180910390fd5b8160369080519060200190611fae9291906120dd565b508060379080519060200190611fc59291906120dd565b505050565b600060019054906101000a900460ff16612019576040517f08c379a000000000000000000000000000000000000000000000000000000000815260040161201090612962565b60405180910390fd5b6000609760006101000a81548160ff021916908315150217905550565b61203e610a8c565b1561207e576040517f08c379a0000000000000000000000000000000000000000000000000000000008152600401612075906128a2565b60405180910390fd5b565b61208b8383836120d8565b612093610a8c565b156120d3576040517f08c379a00000000000000000000000000000000000000000000000000000000081526004016120ca906129c2565b60405180910390fd5b505050565b505050565b8280546120e990612b94565b90600052602060002090601f01602090048101928261210b5760008555612152565b82601f1061212457805160ff1916838001178555612152565b82800160010185558215612152579182015b82811115612151578251825591602001919060010190612136565b5b50905061215f9190612163565b5090565b5b8082111561217c576000816000905550600101612164565b5090565b600061219361218e84612a3d565b612a18565b9050828152602081018484840111156121ab57600080fd5b6121b6848285612b52565b509392505050565b6000813590506121cd8161318e565b92915050565b6000815190506121e2816131a5565b92915050565b600082601f8301126121f957600080fd5b8135612209848260208601612180565b91505092915050565b600081359050612221816131bc565b92915050565b60006020828403121561223957600080fd5b6000612247848285016121be565b91505092915050565b6000806040838503121561226357600080fd5b6000612271858286016121be565b9250506020612282858286016121be565b9150509250929050565b6000806000606084860312156122a157600080fd5b60006122af868287016121be565b93505060206122c0868287016121be565b92505060406122d186828701612212565b9150509250925092565b600080604083850312156122ee57600080fd5b60006122fc858286016121be565b925050602061230d85828601612212565b9150509250929050565b60006020828403121561232957600080fd5b6000612337848285016121d3565b91505092915050565b60006020828403121561235257600080fd5b600082013567ffffffffffffffff81111561236c57600080fd5b612378848285016121e8565b91505092915050565b60006020828403121561239357600080fd5b60006123a184828501612212565b91505092915050565b6123b381612aeb565b82525050565b6123c281612afd565b82525050565b6123d181612b40565b82525050565b60006123e282612a6e565b6123ec8185612a79565b93506123fc818560208601612b61565b61240581612c84565b840191505092915050565b600061241b82612a6e565b6124258185612a8a565b9350612435818560208601612b61565b80840191505092915050565b600061244e602383612a79565b915061245982612c95565b604082019050919050565b6000612471601483612a79565b915061247c82612ce4565b602082019050919050565b6000612494602283612a79565b915061249f82612d0d565b604082019050919050565b60006124b7602283612a79565b91506124c282612d5c565b604082019050919050565b60006124da601d83612a79565b91506124e582612dab565b602082019050919050565b60006124fd601d83612a79565b915061250882612dd4565b602082019050919050565b6000612520602683612a79565b915061252b82612dfd565b604082019050919050565b6000612543601683612a79565b915061254e82612e4c565b602082019050919050565b6000612566602e83612a79565b915061257182612e75565b604082019050919050565b6000612589601083612a79565b915061259482612ec4565b602082019050919050565b60006125ac602e83612a79565b91506125b782612eed565b604082019050919050565b60006125cf602183612a79565b91506125da82612f3c565b604082019050919050565b60006125f2602583612a79565b91506125fd82612f8b565b604082019050919050565b6000612615602483612a79565b915061262082612fda565b604082019050919050565b6000612638602c83612a79565b915061264382613029565b604082019050919050565b600061265b602b83612a79565b915061266682613078565b604082019050919050565b600061267e602583612a79565b9150612689826130c7565b604082019050919050565b60006126a1601f83612a79565b91506126ac82613116565b602082019050919050565b60006126c4602a83612a79565b91506126cf8261313f565b604082019050919050565b6126e381612b29565b82525050565b6126f281612b33565b82525050565b60006127048284612410565b915081905092915050565b600060208201905061272460008301846123aa565b92915050565b600060208201905061273f60008301846123b9565b92915050565b600060208201905061275a60008301846123c8565b92915050565b6000602082019050818103600083015261277a81846123d7565b905092915050565b6000602082019050818103600083015261279b81612441565b9050919050565b600060208201905081810360008301526127bb81612464565b9050919050565b600060208201905081810360008301526127db81612487565b9050919050565b600060208201905081810360008301526127fb816124aa565b9050919050565b6000602082019050818103600083015261281b816124cd565b9050919050565b6000602082019050818103600083015261283b816124f0565b9050919050565b6000602082019050818103600083015261285b81612513565b9050919050565b6000602082019050818103600083015261287b81612536565b9050919050565b6000602082019050818103600083015261289b81612559565b9050919050565b600060208201905081810360008301526128bb8161257c565b9050919050565b600060208201905081810360008301526128db8161259f565b9050919050565b600060208201905081810360008301526128fb816125c2565b9050919050565b6000602082019050818103600083015261291b816125e5565b9050919050565b6000602082019050818103600083015261293b81612608565b9050919050565b6000602082019050818103600083015261295b8161262b565b9050919050565b6000602082019050818103600083015261297b8161264e565b9050919050565b6000602082019050818103600083015261299b81612671565b9050919050565b600060208201905081810360008301526129bb81612694565b9050919050565b600060208201905081810360008301526129db816126b7565b9050919050565b60006020820190506129f760008301846126da565b92915050565b6000602082019050612a1260008301846126e9565b92915050565b6000612a22612a33565b9050612a2e8282612bc6565b919050565b6000604051905090565b600067ffffffffffffffff821115612a5857612a57612c55565b5b612a6182612c84565b9050602081019050919050565b600081519050919050565b600082825260208201905092915050565b600081905092915050565b6000612aa082612b29565b9150612aab83612b29565b9250827fffffffffffffffffffffffffffffffffffffffffffffffffffffffffffffffff03821115612ae057612adf612bf7565b5b828201905092915050565b6000612af682612b09565b9050919050565b60008115159050919050565b600073ffffffffffffffffffffffffffffffffffffffff82169050919050565b6000819050919050565b600060ff82169050919050565b6000612b4b82612b33565b9050919050565b82818337600083830152505050565b60005b83811015612b7f578082015181840152602081019050612b64565b83811115612b8e576000848401525b50505050565b60006002820490506001821680612bac57607f821691505b60208210811415612bc057612bbf612c26565b5b50919050565b612bcf82612c84565b810181811067ffffffffffffffff82111715612bee57612bed612c55565b5b80604052505050565b7f4e487b7100000000000000000000000000000000000000000000000000000000600052601160045260246000fd5b7f4e487b7100000000000000000000000000000000000000000000000000000000600052602260045260246000fd5b7f4e487b7100000000000000000000000000000000000000000000000000000000600052604160045260246000fd5b6000601f19601f8301169050919050565b7f45524332303a207472616e7366657220746f20746865207a65726f206164647260008201527f6573730000000000000000000000000000000000000000000000000000000000602082015250565b7f5061757361626c653a206e6f7420706175736564000000000000000000000000600082015250565b7f45524332303a206275726e20616d6f756e7420657863656564732062616c616e60008201527f6365000000000000000000000000000000000000000000000000000000000000602082015250565b7f45524332303a20617070726f766520746f20746865207a65726f20616464726560008201527f7373000000000000000000000000000000000000000000000000000000000000602082015250565b7f53656e646572204163636f756e7420697320426c61636b4c6973746564000000600082015250565b7f45524332303a20696e73756666696369656e7420616c6c6f77616e6365000000600082015250565b7f45524332303a207472616e7366657220616d6f756e742065786365656473206260008201527f616c616e63650000000000000000000000000000000000000000000000000000602082015250565b7f4163636f756e7420697320426c61636b4c697374656400000000000000000000600082015250565b7f4f6e6c792074686520636f6e7472616374206f776e65722063616e2063616c6c60008201527f20746869732066756e6374696f6e000000000000000000000000000000000000602082015250565b7f5061757361626c653a2070617573656400000000000000000000000000000000600082015250565b7f496e697469616c697a61626c653a20636f6e747261637420697320616c72656160008201527f647920696e697469616c697a6564000000000000000000000000000000000000602082015250565b7f45524332303a206275726e2066726f6d20746865207a65726f2061646472657360008201527f7300000000000000000000000000000000000000000000000000000000000000602082015250565b7f45524332303a207472616e736665722066726f6d20746865207a65726f20616460008201527f6472657373000000000000000000000000000000000000000000000000000000602082015250565b7f45524332303a20617070726f76652066726f6d20746865207a65726f2061646460008201527f7265737300000000000000000000000000000000000000000000000000000000602082015250565b7f5472616e73616374696f6e205369676e61746f7279204163636f756e7420697360008201527f20426c61636b4c69737465640000000000000000000000000000000000000000602082015250565b7f496e697469616c697a61626c653a20636f6e7472616374206973206e6f74206960008201527f6e697469616c697a696e67000000000000000000000000000000000000000000602082015250565b7f45524332303a2064656372656173656420616c6c6f77616e63652062656c6f7760008201527f207a65726f000000000000000000000000000000000000000000000000000000602082015250565b7f45524332303a206d696e7420746f20746865207a65726f206164647265737300600082015250565b7f45524332305061757361626c653a20746f6b656e207472616e7366657220776860008201527f696c652070617573656400000000000000000000000000000000000000000000602082015250565b61319781612aeb565b81146131a257600080fd5b50565b6131ae81612afd565b81146131b957600080fd5b50565b6131c581612b29565b81146131d057600080fd5b5056fea264697066735822122075c269b2c2318ddcbd7a50ac0b80cb88f802b79c2384a4a2c33e87e9b889a68064736f6c63430008040033a26469706673582212201d6c0bb75c0b4a195260e64948733d8b3fd544ad0c4e8ba1ff71ece42e3479ea64736f6c63430008040033",
  "linkReferences": {},
  "deployedLinkReferences": {}
}