{
  "_format": "hh-sol-artifact-1",
  "contractName": "QuoteCurrencyVault",
  "sourceName": "contracts/Vault.sol",
  "abi": [
    {
      "inputs": [],
      "stateMutability": "nonpayable",
      "type": "constructor"
    },
    {
      "anonymous": false,
      "inputs": [
        {
          "indexed": true,
          "internalType": "address",
          "name": "userAddress",
          "type": "address"
        },
        {
          "indexed": true,
          "internalType": "address",
          "name": "tokenAddress",
          "type": "address"
        },
        {
          "indexed": true,
          "internalType": "uint256",
          "name": "amount",
          "type": "uint256"
        }
      ],
      "name": "AdminPullFunds",
      "type": "event"
    },
    {
      "anonymous": false,
      "inputs": [
        {
          "indexed": false,
          "internalType": "uint8",
          "name": "version",
          "type": "uint8"
        }
      ],
      "name": "Initialized",
      "type": "event"
    },
    {
      "anonymous": false,
      "inputs": [
        {
          "indexed": true,
          "internalType": "address",
          "name": "previousOwner",
          "type": "address"
        },
        {
          "indexed": true,
          "internalType": "address",
          "name": "newOwner",
          "type": "address"
        }
      ],
      "name": "OwnershipTransferred",
      "type": "event"
    },
    {
      "anonymous": false,
      "inputs": [
        {
          "indexed": true,
          "internalType": "address",
          "name": "receiver",
          "type": "address"
        },
        {
          "indexed": true,
          "internalType": "uint256",
          "name": "amount",
          "type": "uint256"
        },
        {
          "indexed": true,
          "internalType": "address",
          "name": "tokenAddress",
          "type": "address"
        }
      ],
      "name": "UserWithdraw",
      "type": "event"
    },
    {
      "inputs": [
        {
          "internalType": "address",
          "name": "receiver",
          "type": "address"
        },
        {
          "internalType": "uint256",
          "name": "amount",
          "type": "uint256"
        },
        {
          "internalType": "address",
          "name": "tokenAddress",
          "type": "address"
        }
      ],
      "name": "AdminWithdrawQuoteCurrency",
      "outputs": [],
      "stateMutability": "nonpayable",
      "type": "function"
    },
    {
      "inputs": [
        {
          "internalType": "address",
          "name": "userAddress",
          "type": "address"
        },
        {
          "internalType": "address",
          "name": "tokenAddress",
          "type": "address"
        },
        {
          "internalType": "uint256",
          "name": "amount",
          "type": "uint256"
        }
      ],
      "name": "adminPullFunds",
      "outputs": [],
      "stateMutability": "nonpayable",
      "type": "function"
    },
    {
      "inputs": [],
      "name": "adminsOperationAddress",
      "outputs": [
        {
          "internalType": "address",
          "name": "",
          "type": "address"
        }
      ],
      "stateMutability": "view",
      "type": "function"
    },
    {
      "inputs": [
        {
          "internalType": "address",
          "name": "userAddress",
          "type": "address"
        },
        {
          "internalType": "address",
          "name": "tokenAddress",
          "type": "address"
        }
      ],
      "name": "getUserAddressBalance",
      "outputs": [
        {
          "internalType": "uint256",
          "name": "",
          "type": "uint256"
        }
      ],
      "stateMutability": "view",
      "type": "function"
    },
    {
      "inputs": [
        {
          "internalType": "address",
          "name": "_adminsOperationAddress",
          "type": "address"
        }
      ],
      "name": "initialize",
      "outputs": [],
      "stateMutability": "nonpayable",
      "type": "function"
    },
    {
      "inputs": [],
      "name": "owner",
      "outputs": [
        {
          "internalType": "address",
          "name": "",
          "type": "address"
        }
      ],
      "stateMutability": "view",
      "type": "function"
    },
    {
      "inputs": [],
      "name": "renounceOwnership",
      "outputs": [],
      "stateMutability": "nonpayable",
      "type": "function"
    },
    {
      "inputs": [
        {
          "internalType": "address",
          "name": "newOwner",
          "type": "address"
        }
      ],
      "name": "transferOwnership",
      "outputs": [],
      "stateMutability": "nonpayable",
      "type": "function"
    },
    {
      "inputs": [
        {
          "internalType": "address",
          "name": "",
          "type": "address"
        },
        {
          "internalType": "address",
          "name": "",
          "type": "address"
        }
      ],
      "name": "userAllowance",
      "outputs": [
        {
          "internalType": "uint256",
          "name": "",
          "type": "uint256"
        }
      ],
      "stateMutability": "view",
      "type": "function"
    }
  ],
  "bytecode": "0x60806040523480156200001157600080fd5b50620000226200002860201b60201c565b620001d2565b600060019054906101000a900460ff16156200007b576040517f08c379a0000000000000000000000000000000000000000000000000000000008152600401620000729062000126565b60405180910390fd5b60ff801660008054906101000a900460ff1660ff1614620000ec5760ff6000806101000a81548160ff021916908360ff1602179055507f7f26b83ff96e1f2b6a682f133852f6798a09c465da95921460cefb384740249860ff604051620000e3919062000148565b60405180910390a15b565b6000620000fd60278362000165565b91506200010a8262000183565b604082019050919050565b620001208162000176565b82525050565b600060208201905081810360008301526200014181620000ee565b9050919050565b60006020820190506200015f600083018462000115565b92915050565b600082825260208201905092915050565b600060ff82169050919050565b7f496e697469616c697a61626c653a20636f6e747261637420697320696e69746960008201527f616c697a696e6700000000000000000000000000000000000000000000000000602082015250565b6117e080620001e26000396000f3fe608060405234801561001057600080fd5b50600436106100935760003560e01c80639da7db98116100665780639da7db98146100fa578063b43f6cbb14610116578063c172ad3614610146578063c4d66de814610176578063f2fde38b1461019257610093565b806364c1640514610098578063715018a6146100b65780637d6060d8146100c05780638da5cb5b146100dc575b600080fd5b6100a06101ae565b6040516100ad91906111e8565b60405180910390f35b6100be6101d4565b005b6100da60048036038101906100d59190610f6d565b6101e8565b005b6100e4610575565b6040516100f191906111e8565b60405180910390f35b610114600480360381019061010f9190610fbc565b61059f565b005b610130600480360381019061012b9190610f31565b6109db565b60405161013d91906113e7565b60405180910390f35b610160600480360381019061015b9190610f31565b610a62565b60405161016d91906113e7565b60405180910390f35b610190600480360381019061018b9190610f08565b610a87565b005b6101ac60048036038101906101a79190610f08565b610c07565b005b606660009054906101000a900473ffffffffffffffffffffffffffffffffffffffff1681565b6101dc610c8b565b6101e66000610d09565b565b6101f0610c8b565b60008290506000606660009054906101000a900473ffffffffffffffffffffffffffffffffffffffff1690508073ffffffffffffffffffffffffffffffffffffffff1663e47d6060866040518263ffffffff1660e01b815260040161025591906111e8565b60206040518083038186803b15801561026d57600080fd5b505afa158015610281573d6000803e3d6000fd5b505050506040513d601f19601f820116820180604052508101906102a5919061100b565b156102e5576040517f08c379a00000000000000000000000000000000000000000000000000000000081526004016102dc90611327565b60405180910390fd5b828273ffffffffffffffffffffffffffffffffffffffff1663dd62ed3e87306040518363ffffffff1660e01b8152600401610321929190611203565b60206040518083038186803b15801561033957600080fd5b505afa15801561034d573d6000803e3d6000fd5b505050506040513d601f19601f820116820180604052508101906103719190611034565b10156103b2576040517f08c379a00000000000000000000000000000000000000000000000000000000081526004016103a9906113a7565b60405180910390fd5b8173ffffffffffffffffffffffffffffffffffffffff166323b872dd8630866040518463ffffffff1660e01b81526004016103ef9392919061122c565b602060405180830381600087803b15801561040957600080fd5b505af115801561041d573d6000803e3d6000fd5b505050506040513d601f19601f82011682018060405250810190610441919061100b565b610480576040517f08c379a0000000000000000000000000000000000000000000000000000000008152600401610477906112e7565b60405180910390fd5b82606560008773ffffffffffffffffffffffffffffffffffffffff1673ffffffffffffffffffffffffffffffffffffffff16815260200190815260200160002060008673ffffffffffffffffffffffffffffffffffffffff1673ffffffffffffffffffffffffffffffffffffffff168152602001908152602001600020600082825461050c9190611413565b92505081905550828473ffffffffffffffffffffffffffffffffffffffff168673ffffffffffffffffffffffffffffffffffffffff167f9f6753d7bb93f0133959274c2fdfc5bc380f36232ab9b165c0522e2b5dd2975c60405160405180910390a45050505050565b6000603360009054906101000a900473ffffffffffffffffffffffffffffffffffffffff16905090565b6105a7610c8b565b6000606660009054906101000a900473ffffffffffffffffffffffffffffffffffffffff1690508073ffffffffffffffffffffffffffffffffffffffff1663e47d6060856040518263ffffffff1660e01b815260040161060791906111e8565b60206040518083038186803b15801561061f57600080fd5b505afa158015610633573d6000803e3d6000fd5b505050506040513d601f19601f82011682018060405250810190610657919061100b565b15610697576040517f08c379a000000000000000000000000000000000000000000000000000000000815260040161068e90611307565b60405180910390fd5b6000606560008673ffffffffffffffffffffffffffffffffffffffff1673ffffffffffffffffffffffffffffffffffffffff16815260200190815260200160002060008473ffffffffffffffffffffffffffffffffffffffff1673ffffffffffffffffffffffffffffffffffffffff1681526020019081526020016000205411610756576040517f08c379a000000000000000000000000000000000000000000000000000000000815260040161074d906112a7565b60405180910390fd5b82606560008673ffffffffffffffffffffffffffffffffffffffff1673ffffffffffffffffffffffffffffffffffffffff16815260200190815260200160002060008473ffffffffffffffffffffffffffffffffffffffff1673ffffffffffffffffffffffffffffffffffffffff168152602001908152602001600020541015610815576040517f08c379a000000000000000000000000000000000000000000000000000000000815260040161080c90611347565b60405180910390fd5b600082905083606560008773ffffffffffffffffffffffffffffffffffffffff1673ffffffffffffffffffffffffffffffffffffffff16815260200190815260200160002060008573ffffffffffffffffffffffffffffffffffffffff1673ffffffffffffffffffffffffffffffffffffffff16815260200190815260200160002060008282546108a69190611469565b925050819055508073ffffffffffffffffffffffffffffffffffffffff1663a9059cbb86866040518363ffffffff1660e01b81526004016108e8929190611263565b602060405180830381600087803b15801561090257600080fd5b505af1158015610916573d6000803e3d6000fd5b505050506040513d601f19601f8201168201806040525081019061093a919061100b565b610979576040517f08c379a0000000000000000000000000000000000000000000000000000000008152600401610970906112e7565b60405180910390fd5b8273ffffffffffffffffffffffffffffffffffffffff16848673ffffffffffffffffffffffffffffffffffffffff167f10e646b29d090cb7ddc0c691f8036f1d9f7a6ba5ab64e48a20f6715f2cbf158860405160405180910390a45050505050565b6000606560008473ffffffffffffffffffffffffffffffffffffffff1673ffffffffffffffffffffffffffffffffffffffff16815260200190815260200160002060008373ffffffffffffffffffffffffffffffffffffffff1673ffffffffffffffffffffffffffffffffffffffff16815260200190815260200160002054905092915050565b6065602052816000526040600020602052806000526040600020600091509150505481565b60008060019054906101000a900460ff16159050808015610ab85750600160008054906101000a900460ff1660ff16105b80610ae55750610ac730610dcf565b158015610ae45750600160008054906101000a900460ff1660ff16145b5b610b24576040517f08c379a0000000000000000000000000000000000000000000000000000000008152600401610b1b90611367565b60405180910390fd5b60016000806101000a81548160ff021916908360ff1602179055508015610b61576001600060016101000a81548160ff0219169083151502179055505b81606660006101000a81548173ffffffffffffffffffffffffffffffffffffffff021916908373ffffffffffffffffffffffffffffffffffffffff160217905550610baa610df2565b8015610c035760008060016101000a81548160ff0219169083151502179055507f7f26b83ff96e1f2b6a682f133852f6798a09c465da95921460cefb38474024986001604051610bfa919061128c565b60405180910390a15b5050565b610c0f610c8b565b600073ffffffffffffffffffffffffffffffffffffffff168173ffffffffffffffffffffffffffffffffffffffff161415610c7f576040517f08c379a0000000000000000000000000000000000000000000000000000000008152600401610c76906112c7565b60405180910390fd5b610c8881610d09565b50565b610c93610e4b565b73ffffffffffffffffffffffffffffffffffffffff16610cb1610575565b73ffffffffffffffffffffffffffffffffffffffff1614610d07576040517f08c379a0000000000000000000000000000000000000000000000000000000008152600401610cfe90611387565b60405180910390fd5b565b6000603360009054906101000a900473ffffffffffffffffffffffffffffffffffffffff16905081603360006101000a81548173ffffffffffffffffffffffffffffffffffffffff021916908373ffffffffffffffffffffffffffffffffffffffff1602179055508173ffffffffffffffffffffffffffffffffffffffff168173ffffffffffffffffffffffffffffffffffffffff167f8be0079c531659141344cd1fd0a4f28419497f9722a3daafe3b4186f6b6457e060405160405180910390a35050565b6000808273ffffffffffffffffffffffffffffffffffffffff163b119050919050565b600060019054906101000a900460ff16610e41576040517f08c379a0000000000000000000000000000000000000000000000000000000008152600401610e38906113c7565b60405180910390fd5b610e49610e53565b565b600033905090565b600060019054906101000a900460ff16610ea2576040517f08c379a0000000000000000000000000000000000000000000000000000000008152600401610e99906113c7565b60405180910390fd5b610eb2610ead610e4b565b610d09565b565b600081359050610ec381611765565b92915050565b600081519050610ed88161177c565b92915050565b600081359050610eed81611793565b92915050565b600081519050610f0281611793565b92915050565b600060208284031215610f1a57600080fd5b6000610f2884828501610eb4565b91505092915050565b60008060408385031215610f4457600080fd5b6000610f5285828601610eb4565b9250506020610f6385828601610eb4565b9150509250929050565b600080600060608486031215610f8257600080fd5b6000610f9086828701610eb4565b9350506020610fa186828701610eb4565b9250506040610fb286828701610ede565b9150509250925092565b600080600060608486031215610fd157600080fd5b6000610fdf86828701610eb4565b9350506020610ff086828701610ede565b925050604061100186828701610eb4565b9150509250925092565b60006020828403121561101d57600080fd5b600061102b84828501610ec9565b91505092915050565b60006020828403121561104657600080fd5b600061105484828501610ef3565b91505092915050565b6110668161149d565b82525050565b611075816114f2565b82525050565b6000611088601783611402565b915061109382611533565b602082019050919050565b60006110ab602683611402565b91506110b68261155c565b604082019050919050565b60006110ce600f83611402565b91506110d9826115ab565b602082019050919050565b60006110f1601783611402565b91506110fc826115d4565b602082019050919050565b6000611114601683611402565b915061111f826115fd565b602082019050919050565b6000611137602583611402565b915061114282611626565b604082019050919050565b600061115a602e83611402565b915061116582611675565b604082019050919050565b600061117d602083611402565b9150611188826116c4565b602082019050919050565b60006111a0601483611402565b91506111ab826116ed565b602082019050919050565b60006111c3602b83611402565b91506111ce82611716565b604082019050919050565b6111e2816114db565b82525050565b60006020820190506111fd600083018461105d565b92915050565b6000604082019050611218600083018561105d565b611225602083018461105d565b9392505050565b6000606082019050611241600083018661105d565b61124e602083018561105d565b61125b60408301846111d9565b949350505050565b6000604082019050611278600083018561105d565b61128560208301846111d9565b9392505050565b60006020820190506112a1600083018461106c565b92915050565b600060208201905081810360008301526112c08161107b565b9050919050565b600060208201905081810360008301526112e08161109e565b9050919050565b60006020820190508181036000830152611300816110c1565b9050919050565b60006020820190508181036000830152611320816110e4565b9050919050565b6000602082019050818103600083015261134081611107565b9050919050565b600060208201905081810360008301526113608161112a565b9050919050565b600060208201905081810360008301526113808161114d565b9050919050565b600060208201905081810360008301526113a081611170565b9050919050565b600060208201905081810360008301526113c081611193565b9050919050565b600060208201905081810360008301526113e0816111b6565b9050919050565b60006020820190506113fc60008301846111d9565b92915050565b600082825260208201905092915050565b600061141e826114db565b9150611429836114db565b9250827fffffffffffffffffffffffffffffffffffffffffffffffffffffffffffffffff0382111561145e5761145d611504565b5b828201905092915050565b6000611474826114db565b915061147f836114db565b92508282101561149257611491611504565b5b828203905092915050565b60006114a8826114bb565b9050919050565b60008115159050919050565b600073ffffffffffffffffffffffffffffffffffffffff82169050919050565b6000819050919050565b600060ff82169050919050565b60006114fd826114e5565b9050919050565b7f4e487b7100000000000000000000000000000000000000000000000000000000600052601160045260246000fd5b7f5573657220686173206e6f7420617574686f72697a6564000000000000000000600082015250565b7f4f776e61626c653a206e6577206f776e657220697320746865207a65726f206160008201527f6464726573730000000000000000000000000000000000000000000000000000602082015250565b7f5472616e73666572206661696c65640000000000000000000000000000000000600082015250565b7f526563656976657220697320426c61636b4c6973746564000000000000000000600082015250565b7f4163636f756e7420697320426c61636b4c697374656400000000000000000000600082015250565b7f5573657220686173206e6f7420617574686f72697a656420656e6f756768206160008201527f6d6f756e74000000000000000000000000000000000000000000000000000000602082015250565b7f496e697469616c697a61626c653a20636f6e747261637420697320616c72656160008201527f647920696e697469616c697a6564000000000000000000000000000000000000602082015250565b7f4f776e61626c653a2063616c6c6572206973206e6f7420746865206f776e6572600082015250565b7f416c6c6f77616e6365206e6f7420656e6f756768000000000000000000000000600082015250565b7f496e697469616c697a61626c653a20636f6e7472616374206973206e6f74206960008201527f6e697469616c697a696e67000000000000000000000000000000000000000000602082015250565b61176e8161149d565b811461177957600080fd5b50565b611785816114af565b811461179057600080fd5b50565b61179c816114db565b81146117a757600080fd5b5056fea26469706673582212200261eb15c645c295935f6206a83150f577c5272518fd5d133f1b50f3c3bbb96f64736f6c63430008040033",
  "linkReferences": {},
  "deployedLinkReferences": {}
}