{
  "_format": "hh-sol-artifact-1",
  "contractName": "Admin",
  "sourceName": "contracts/Admin.sol",
  "abi": [
    {
      "inputs": [],
      "stateMutability": "nonpayable",
      "type": "constructor"
    },
    {
      "anonymous": false,
      "inputs": [
        {
          "indexed": false,
          "internalType": "address",
          "name": "_user",
          "type": "address"
        }
      ],
      "name": "AddedBlackList",
      "type": "event"
    },
    {
      "anonymous": false,
      "inputs": [
        {
          "indexed": false,
          "internalType": "uint8",
          "name": "version",
          "type": "uint8"
        }
      ],
      "name": "Initialized",
      "type": "event"
    },
    {
      "anonymous": false,
      "inputs": [
        {
          "indexed": true,
          "internalType": "address",
          "name": "previousOwner",
          "type": "address"
        },
        {
          "indexed": true,
          "internalType": "address",
          "name": "newOwner",
          "type": "address"
        }
      ],
      "name": "OwnershipTransferred",
      "type": "event"
    },
    {
      "anonymous": false,
      "inputs": [
        {
          "indexed": false,
          "internalType": "address",
          "name": "_user",
          "type": "address"
        }
      ],
      "name": "RemovedBlackList",
      "type": "event"
    },
    {
      "inputs": [
        {
          "internalType": "address",
          "name": "_evilUser",
          "type": "address"
        }
      ],
      "name": "AddBlackList",
      "outputs": [],
      "stateMutability": "nonpayable",
      "type": "function"
    },
    {
      "inputs": [
        {
          "internalType": "address",
          "name": "_clearedUser",
          "type": "address"
        }
      ],
      "name": "RemoveBlackList",
      "outputs": [
        {
          "internalType": "bool",
          "name": "",
          "type": "bool"
        }
      ],
      "stateMutability": "nonpayable",
      "type": "function"
    },
    {
      "inputs": [],
      "name": "initialize",
      "outputs": [],
      "stateMutability": "nonpayable",
      "type": "function"
    },
    {
      "inputs": [
        {
          "internalType": "address",
          "name": "",
          "type": "address"
        }
      ],
      "name": "isBlackListed",
      "outputs": [
        {
          "internalType": "bool",
          "name": "",
          "type": "bool"
        }
      ],
      "stateMutability": "view",
      "type": "function"
    },
    {
      "inputs": [],
      "name": "owner",
      "outputs": [
        {
          "internalType": "address",
          "name": "",
          "type": "address"
        }
      ],
      "stateMutability": "view",
      "type": "function"
    },
    {
      "inputs": [],
      "name": "renounceOwnership",
      "outputs": [],
      "stateMutability": "nonpayable",
      "type": "function"
    },
    {
      "inputs": [
        {
          "internalType": "address",
          "name": "newOwner",
          "type": "address"
        }
      ],
      "name": "transferOwnership",
      "outputs": [],
      "stateMutability": "nonpayable",
      "type": "function"
    }
  ],
  "bytecode": "0x60806040523480156200001157600080fd5b50620000226200002860201b60201c565b620001d2565b600060019054906101000a900460ff16156200007b576040517f08c379a0000000000000000000000000000000000000000000000000000000008152600401620000729062000126565b60405180910390fd5b60ff801660008054906101000a900460ff1660ff1614620000ec5760ff6000806101000a81548160ff021916908360ff1602179055507f7f26b83ff96e1f2b6a682f133852f6798a09c465da95921460cefb384740249860ff604051620000e3919062000148565b60405180910390a15b565b6000620000fd60278362000165565b91506200010a8262000183565b604082019050919050565b620001208162000176565b82525050565b600060208201905081810360008301526200014181620000ee565b9050919050565b60006020820190506200015f600083018462000115565b92915050565b600082825260208201905092915050565b600060ff82169050919050565b7f496e697469616c697a61626c653a20636f6e747261637420697320696e69746960008201527f616c697a696e6700000000000000000000000000000000000000000000000000602082015250565b610c5b80620001e26000396000f3fe608060405234801561001057600080fd5b506004361061007d5760003560e01c80638da5cb5b1161005b5780638da5cb5b146100c6578063e47d6060146100e4578063f2fde38b14610114578063f9dfc505146101305761007d565b80632234edb614610082578063715018a6146100b25780638129fc1c146100bc575b600080fd5b61009c600480360381019061009791906107ff565b61014c565b6040516100a99190610942565b60405180910390f35b6100ba61027a565b005b6100c461028e565b005b6100ce6103cc565b6040516100db9190610927565b60405180910390f35b6100fe60048036038101906100f991906107ff565b6103f6565b60405161010b9190610942565b60405180910390f35b61012e600480360381019061012991906107ff565b610416565b005b61014a600480360381019061014591906107ff565b61049a565b005b60006101566105c1565b606560008373ffffffffffffffffffffffffffffffffffffffff1673ffffffffffffffffffffffffffffffffffffffff16815260200190815260200160002060009054906101000a900460ff166101e2576040517f08c379a00000000000000000000000000000000000000000000000000000000081526004016101d9906109f8565b60405180910390fd5b6000606560008473ffffffffffffffffffffffffffffffffffffffff1673ffffffffffffffffffffffffffffffffffffffff16815260200190815260200160002060006101000a81548160ff0219169083151502179055507fd7e9ec6e6ecd65492dce6bf513cd6867560d49544421d0783ddf06e76c24470c826040516102699190610927565b60405180910390a160019050919050565b6102826105c1565b61028c600061063f565b565b60008060019054906101000a900460ff161590508080156102bf5750600160008054906101000a900460ff1660ff16105b806102ec57506102ce30610705565b1580156102eb5750600160008054906101000a900460ff1660ff16145b5b61032b576040517f08c379a000000000000000000000000000000000000000000000000000000000815260040161032290610998565b60405180910390fd5b60016000806101000a81548160ff021916908360ff1602179055508015610368576001600060016101000a81548160ff0219169083151502179055505b610370610728565b80156103c95760008060016101000a81548160ff0219169083151502179055507f7f26b83ff96e1f2b6a682f133852f6798a09c465da95921460cefb384740249860016040516103c0919061095d565b60405180910390a15b50565b6000603360009054906101000a900473ffffffffffffffffffffffffffffffffffffffff16905090565b60656020528060005260406000206000915054906101000a900460ff1681565b61041e6105c1565b600073ffffffffffffffffffffffffffffffffffffffff168173ffffffffffffffffffffffffffffffffffffffff16141561048e576040517f08c379a000000000000000000000000000000000000000000000000000000000815260040161048590610978565b60405180910390fd5b6104978161063f565b50565b6104a26105c1565b606560008273ffffffffffffffffffffffffffffffffffffffff1673ffffffffffffffffffffffffffffffffffffffff16815260200190815260200160002060009054906101000a900460ff161561052f576040517f08c379a0000000000000000000000000000000000000000000000000000000008152600401610526906109b8565b60405180910390fd5b6001606560008373ffffffffffffffffffffffffffffffffffffffff1673ffffffffffffffffffffffffffffffffffffffff16815260200190815260200160002060006101000a81548160ff0219169083151502179055507f42e160154868087d6bfdc0ca23d96a1c1cfa32f1b72ba9ba27b69b98a0d819dc816040516105b69190610927565b60405180910390a150565b6105c9610781565b73ffffffffffffffffffffffffffffffffffffffff166105e76103cc565b73ffffffffffffffffffffffffffffffffffffffff161461063d576040517f08c379a0000000000000000000000000000000000000000000000000000000008152600401610634906109d8565b60405180910390fd5b565b6000603360009054906101000a900473ffffffffffffffffffffffffffffffffffffffff16905081603360006101000a81548173ffffffffffffffffffffffffffffffffffffffff021916908373ffffffffffffffffffffffffffffffffffffffff1602179055508173ffffffffffffffffffffffffffffffffffffffff168173ffffffffffffffffffffffffffffffffffffffff167f8be0079c531659141344cd1fd0a4f28419497f9722a3daafe3b4186f6b6457e060405160405180910390a35050565b6000808273ffffffffffffffffffffffffffffffffffffffff163b119050919050565b600060019054906101000a900460ff16610777576040517f08c379a000000000000000000000000000000000000000000000000000000000815260040161076e90610a18565b60405180910390fd5b61077f610789565b565b600033905090565b600060019054906101000a900460ff166107d8576040517f08c379a00000000000000000000000000000000000000000000000000000000081526004016107cf90610a18565b60405180910390fd5b6107e86107e3610781565b61063f565b565b6000813590506107f981610c0e565b92915050565b60006020828403121561081157600080fd5b600061081f848285016107ea565b91505092915050565b61083181610a49565b82525050565b61084081610a5b565b82525050565b61084f81610a94565b82525050565b6000610862602683610a38565b915061086d82610aa6565b604082019050919050565b6000610885602e83610a38565b915061089082610af5565b604082019050919050565b60006108a8601883610a38565b91506108b382610b44565b602082019050919050565b60006108cb602083610a38565b91506108d682610b6d565b602082019050919050565b60006108ee601983610a38565b91506108f982610b96565b602082019050919050565b6000610911602b83610a38565b915061091c82610bbf565b604082019050919050565b600060208201905061093c6000830184610828565b92915050565b60006020820190506109576000830184610837565b92915050565b60006020820190506109726000830184610846565b92915050565b6000602082019050818103600083015261099181610855565b9050919050565b600060208201905081810360008301526109b181610878565b9050919050565b600060208201905081810360008301526109d18161089b565b9050919050565b600060208201905081810360008301526109f1816108be565b9050919050565b60006020820190508181036000830152610a11816108e1565b9050919050565b60006020820190508181036000830152610a3181610904565b9050919050565b600082825260208201905092915050565b6000610a5482610a67565b9050919050565b60008115159050919050565b600073ffffffffffffffffffffffffffffffffffffffff82169050919050565b600060ff82169050919050565b6000610a9f82610a87565b9050919050565b7f4f776e61626c653a206e6577206f776e657220697320746865207a65726f206160008201527f6464726573730000000000000000000000000000000000000000000000000000602082015250565b7f496e697469616c697a61626c653a20636f6e747261637420697320616c72656160008201527f647920696e697469616c697a6564000000000000000000000000000000000000602082015250565b7f5573657220616c726561647920426c61636b4c69737465640000000000000000600082015250565b7f4f776e61626c653a2063616c6c6572206973206e6f7420746865206f776e6572600082015250565b7f41646472657373206e6f742061204c6973746564205573657200000000000000600082015250565b7f496e697469616c697a61626c653a20636f6e7472616374206973206e6f74206960008201527f6e697469616c697a696e67000000000000000000000000000000000000000000602082015250565b610c1781610a49565b8114610c2257600080fd5b5056fea26469706673582212209ee804016772fd8ff1869a763f285976020412b23511a5ec9ea457d0a90641e764736f6c63430008040033",
  "linkReferences": {},
  "deployedLinkReferences": {}
}