{
  "_format": "hh-sol-artifact-1",
  "contractName": "MoojaEscrow",
  "sourceName": "contracts/Escrow.sol",
  "abi": [
    {
      "inputs": [
        {
          "internalType": "address",
          "name": "_basketContractAddress",
          "type": "address"
        },
        {
          "internalType": "address",
          "name": "_owner",
          "type": "address"
        }
      ],
      "stateMutability": "nonpayable",
      "type": "constructor"
    },
    {
      "anonymous": false,
      "inputs": [
        {
          "indexed": true,
          "internalType": "address",
          "name": "userAddress",
          "type": "address"
        },
        {
          "indexed": true,
          "internalType": "address",
          "name": "tokenAddress",
          "type": "address"
        },
        {
          "indexed": true,
          "internalType": "uint256",
          "name": "amount",
          "type": "uint256"
        }
      ],
      "name": "adminPullBaseCurrency",
      "type": "event"
    },
    {
      "anonymous": false,
      "inputs": [
        {
          "indexed": true,
          "internalType": "address",
          "name": "receiver",
          "type": "address"
        },
        {
          "indexed": true,
          "internalType": "uint256",
          "name": "amount",
          "type": "uint256"
        },
        {
          "indexed": true,
          "internalType": "address",
          "name": "tokenAddress",
          "type": "address"
        }
      ],
      "name": "adminWithdrawBaseCurrency",
      "type": "event"
    },
    {
      "anonymous": false,
      "inputs": [
        {
          "indexed": false,
          "internalType": "address",
          "name": "buyerAddress",
          "type": "address"
        },
        {
          "indexed": true,
          "internalType": "uint256",
          "name": "buyerAmount",
          "type": "uint256"
        },
        {
          "indexed": true,
          "internalType": "address",
          "name": "sellerAddress",
          "type": "address"
        },
        {
          "indexed": true,
          "internalType": "uint256",
          "name": "sellerAmount",
          "type": "uint256"
        },
        {
          "indexed": false,
          "internalType": "address",
          "name": "quoteCurrencyAddress",
          "type": "address"
        },
        {
          "indexed": false,
          "internalType": "address",
          "name": "baseCurrencyAddress",
          "type": "address"
        }
      ],
      "name": "settleTrade",
      "type": "event"
    },
    {
      "inputs": [
        {
          "internalType": "address",
          "name": "userAddress",
          "type": "address"
        },
        {
          "internalType": "address",
          "name": "tokenAddress",
          "type": "address"
        },
        {
          "internalType": "uint256",
          "name": "amount",
          "type": "uint256"
        }
      ],
      "name": "AdminPullBaseCurrency",
      "outputs": [],
      "stateMutability": "nonpayable",
      "type": "function"
    },
    {
      "inputs": [
        {
          "internalType": "address",
          "name": "receiver",
          "type": "address"
        },
        {
          "internalType": "uint256",
          "name": "amount",
          "type": "uint256"
        },
        {
          "internalType": "address",
          "name": "tokenAddress",
          "type": "address"
        }
      ],
      "name": "AdminWithdrawBaseCurrency",
      "outputs": [],
      "stateMutability": "nonpayable",
      "type": "function"
    },
    {
      "inputs": [
        {
          "internalType": "address",
          "name": "buyerAddress",
          "type": "address"
        },
        {
          "internalType": "uint256",
          "name": "buyerAmount",
          "type": "uint256"
        },
        {
          "internalType": "address",
          "name": "sellerAddress",
          "type": "address"
        },
        {
          "internalType": "uint256",
          "name": "sellerAmount",
          "type": "uint256"
        },
        {
          "internalType": "address",
          "name": "quoteCurrencyAddress",
          "type": "address"
        },
        {
          "internalType": "address",
          "name": "baseCurrencyAddress",
          "type": "address"
        },
        {
          "internalType": "address",
          "name": "vaultAddress",
          "type": "address"
        }
      ],
      "name": "SettleTrade",
      "outputs": [],
      "stateMutability": "nonpayable",
      "type": "function"
    },
    {
      "inputs": [],
      "name": "basketContractAddress",
      "outputs": [
        {
          "internalType": "address",
          "name": "",
          "type": "address"
        }
      ],
      "stateMutability": "view",
      "type": "function"
    },
    {
      "inputs": [],
      "name": "contractOwner",
      "outputs": [
        {
          "internalType": "address",
          "name": "",
          "type": "address"
        }
      ],
      "stateMutability": "view",
      "type": "function"
    },
    {
      "inputs": [
        {
          "internalType": "address",
          "name": "userAddress",
          "type": "address"
        },
        {
          "internalType": "address",
          "name": "tokenAddress",
          "type": "address"
        }
      ],
      "name": "getUserAddressBalance",
      "outputs": [
        {
          "internalType": "uint256",
          "name": "",
          "type": "uint256"
        }
      ],
      "stateMutability": "view",
      "type": "function"
    },
    {
      "inputs": [
        {
          "internalType": "address",
          "name": "",
          "type": "address"
        },
        {
          "internalType": "address",
          "name": "",
          "type": "address"
        }
      ],
      "name": "userBaseCurrencyAllowance",
      "outputs": [
        {
          "internalType": "uint256",
          "name": "",
          "type": "uint256"
        }
      ],
      "stateMutability": "view",
      "type": "function"
    }
  ],
  "bytecode": "0x60806040523480156200001157600080fd5b506040516200171e3803806200171e8339818101604052810190620000379190620000d7565b80600160006101000a81548173ffffffffffffffffffffffffffffffffffffffff021916908373ffffffffffffffffffffffffffffffffffffffff160217905550816000806101000a81548173ffffffffffffffffffffffffffffffffffffffff021916908373ffffffffffffffffffffffffffffffffffffffff160217905550505062000166565b600081519050620000d1816200014c565b92915050565b60008060408385031215620000eb57600080fd5b6000620000fb85828601620000c0565b92505060206200010e85828601620000c0565b9150509250929050565b600062000125826200012c565b9050919050565b600073ffffffffffffffffffffffffffffffffffffffff82169050919050565b620001578162000118565b81146200016357600080fd5b50565b6115a880620001766000396000f3fe608060405234801561001057600080fd5b506004361061007d5760003560e01c8063bbaf3b531161005b578063bbaf3b53146100ec578063bfb281db14610108578063ce606ee014610138578063d10908d8146101565761007d565b806307e2cb6d1461008257806364da15ba1461009e578063b43f6cbb146100bc575b600080fd5b61009c60048036038101906100979190610eaa565b610172565b005b6100a66105a1565b6040516100b391906110ad565b60405180910390f35b6100d660048036038101906100d19190610dd0565b6105c5565b6040516100e3919061129f565b60405180910390f35b61010660048036038101906101019190610e0c565b61064c565b005b610122600480360381019061011d9190610dd0565b61095e565b60405161012f919061129f565b60405180910390f35b610140610983565b60405161014d91906110ad565b60405180910390f35b610170600480360381019061016b9190610e5b565b6109a9565b005b600160009054906101000a900473ffffffffffffffffffffffffffffffffffffffff1673ffffffffffffffffffffffffffffffffffffffff163373ffffffffffffffffffffffffffffffffffffffff1614610202576040517f08c379a00000000000000000000000000000000000000000000000000000000081526004016101f9906111ff565b60405180910390fd5b6000819050868173ffffffffffffffffffffffffffffffffffffffff1663c172ad368a876040518363ffffffff1660e01b81526004016102439291906110c8565b60206040518083038186803b15801561025b57600080fd5b505afa15801561026f573d6000803e3d6000fd5b505050506040513d601f19601f820116820180604052508101906102939190610f71565b10156102d4576040517f08c379a00000000000000000000000000000000000000000000000000000000081526004016102cb9061127f565b60405180910390fd5b84600260008873ffffffffffffffffffffffffffffffffffffffff1673ffffffffffffffffffffffffffffffffffffffff16815260200190815260200160002060008573ffffffffffffffffffffffffffffffffffffffff1673ffffffffffffffffffffffffffffffffffffffff168152602001908152602001600020541015610393576040517f08c379a000000000000000000000000000000000000000000000000000000000815260040161038a9061125f565b60405180910390fd5b8073ffffffffffffffffffffffffffffffffffffffff16639da7db988789876040518463ffffffff1660e01b81526004016103d093929190611188565b600060405180830381600087803b1580156103ea57600080fd5b505af11580156103fe573d6000803e3d6000fd5b5050505084600260008873ffffffffffffffffffffffffffffffffffffffff1673ffffffffffffffffffffffffffffffffffffffff16815260200190815260200160002060008573ffffffffffffffffffffffffffffffffffffffff1673ffffffffffffffffffffffffffffffffffffffff168152602001908152602001600020600082825461048e91906112cb565b9250508190555060008054906101000a900473ffffffffffffffffffffffffffffffffffffffff1673ffffffffffffffffffffffffffffffffffffffff1663a9059cbb89876040518363ffffffff1660e01b81526004016104f092919061115f565b602060405180830381600087803b15801561050a57600080fd5b505af115801561051e573d6000803e3d6000fd5b505050506040513d601f19601f820116820180604052508101906105429190610f48565b50848673ffffffffffffffffffffffffffffffffffffffff16887fa61f602c7b921d7f9d0587bef4f526820f2b9b2ec9a27ed30089a5de1210d8c18b888860405161058f939291906110f1565b60405180910390a45050505050505050565b60008054906101000a900473ffffffffffffffffffffffffffffffffffffffff1681565b6000600260008473ffffffffffffffffffffffffffffffffffffffff1673ffffffffffffffffffffffffffffffffffffffff16815260200190815260200160002060008373ffffffffffffffffffffffffffffffffffffffff1673ffffffffffffffffffffffffffffffffffffffff16815260200190815260200160002054905092915050565b600160009054906101000a900473ffffffffffffffffffffffffffffffffffffffff1673ffffffffffffffffffffffffffffffffffffffff163373ffffffffffffffffffffffffffffffffffffffff16146106dc576040517f08c379a00000000000000000000000000000000000000000000000000000000081526004016106d3906111ff565b60405180910390fd5b6000829050818173ffffffffffffffffffffffffffffffffffffffff1663dd62ed3e86306040518363ffffffff1660e01b815260040161071d9291906110c8565b60206040518083038186803b15801561073557600080fd5b505afa158015610749573d6000803e3d6000fd5b505050506040513d601f19601f8201168201806040525081019061076d9190610f71565b10156107ae576040517f08c379a00000000000000000000000000000000000000000000000000000000081526004016107a59061123f565b60405180910390fd5b8073ffffffffffffffffffffffffffffffffffffffff166323b872dd8530856040518463ffffffff1660e01b81526004016107eb93929190611128565b602060405180830381600087803b15801561080557600080fd5b505af1158015610819573d6000803e3d6000fd5b505050506040513d601f19601f8201168201806040525081019061083d9190610f48565b61087c576040517f08c379a0000000000000000000000000000000000000000000000000000000008152600401610873906111df565b60405180910390fd5b81600260008673ffffffffffffffffffffffffffffffffffffffff1673ffffffffffffffffffffffffffffffffffffffff16815260200190815260200160002060008573ffffffffffffffffffffffffffffffffffffffff1673ffffffffffffffffffffffffffffffffffffffff16815260200190815260200160002081905550818373ffffffffffffffffffffffffffffffffffffffff168573ffffffffffffffffffffffffffffffffffffffff167f9598e9d4e192af28607a51f7bca194dfa1ffe84da77d6149c58a40ad366fffdc60405160405180910390a450505050565b6002602052816000526040600020602052806000526040600020600091509150505481565b600160009054906101000a900473ffffffffffffffffffffffffffffffffffffffff1681565b600160009054906101000a900473ffffffffffffffffffffffffffffffffffffffff1673ffffffffffffffffffffffffffffffffffffffff163373ffffffffffffffffffffffffffffffffffffffff1614610a39576040517f08c379a0000000000000000000000000000000000000000000000000000000008152600401610a30906111ff565b60405180910390fd5b6000600260008573ffffffffffffffffffffffffffffffffffffffff1673ffffffffffffffffffffffffffffffffffffffff16815260200190815260200160002060008373ffffffffffffffffffffffffffffffffffffffff1673ffffffffffffffffffffffffffffffffffffffff1681526020019081526020016000205411610af8576040517f08c379a0000000000000000000000000000000000000000000000000000000008152600401610aef906111bf565b60405180910390fd5b81600260008573ffffffffffffffffffffffffffffffffffffffff1673ffffffffffffffffffffffffffffffffffffffff16815260200190815260200160002060008373ffffffffffffffffffffffffffffffffffffffff1673ffffffffffffffffffffffffffffffffffffffff168152602001908152602001600020541015610bb7576040517f08c379a0000000000000000000000000000000000000000000000000000000008152600401610bae9061121f565b60405180910390fd5b600081905082600260008673ffffffffffffffffffffffffffffffffffffffff1673ffffffffffffffffffffffffffffffffffffffff16815260200190815260200160002060008473ffffffffffffffffffffffffffffffffffffffff1673ffffffffffffffffffffffffffffffffffffffff1681526020019081526020016000206000828254610c4891906112cb565b925050819055508073ffffffffffffffffffffffffffffffffffffffff1663a9059cbb85856040518363ffffffff1660e01b8152600401610c8a92919061115f565b602060405180830381600087803b158015610ca457600080fd5b505af1158015610cb8573d6000803e3d6000fd5b505050506040513d601f19601f82011682018060405250810190610cdc9190610f48565b610d1b576040517f08c379a0000000000000000000000000000000000000000000000000000000008152600401610d12906111df565b60405180910390fd5b8173ffffffffffffffffffffffffffffffffffffffff16838573ffffffffffffffffffffffffffffffffffffffff167ff182ea295e6399483515e847699afdebc3e80334784c5a82a28fe73ad82233c160405160405180910390a450505050565b600081359050610d8b8161152d565b92915050565b600081519050610da081611544565b92915050565b600081359050610db58161155b565b92915050565b600081519050610dca8161155b565b92915050565b60008060408385031215610de357600080fd5b6000610df185828601610d7c565b9250506020610e0285828601610d7c565b9150509250929050565b600080600060608486031215610e2157600080fd5b6000610e2f86828701610d7c565b9350506020610e4086828701610d7c565b9250506040610e5186828701610da6565b9150509250925092565b600080600060608486031215610e7057600080fd5b6000610e7e86828701610d7c565b9350506020610e8f86828701610da6565b9250506040610ea086828701610d7c565b9150509250925092565b600080600080600080600060e0888a031215610ec557600080fd5b6000610ed38a828b01610d7c565b9750506020610ee48a828b01610da6565b9650506040610ef58a828b01610d7c565b9550506060610f068a828b01610da6565b9450506080610f178a828b01610d7c565b93505060a0610f288a828b01610d7c565b92505060c0610f398a828b01610d7c565b91505092959891949750929550565b600060208284031215610f5a57600080fd5b6000610f6884828501610d91565b91505092915050565b600060208284031215610f8357600080fd5b6000610f9184828501610dbb565b91505092915050565b610fa3816112ff565b82525050565b6000610fb66017836112ba565b9150610fc182611376565b602082019050919050565b6000610fd9600f836112ba565b9150610fe48261139f565b602082019050919050565b6000610ffc602e836112ba565b9150611007826113c8565b604082019050919050565b600061101f6025836112ba565b915061102a82611417565b604082019050919050565b60006110426014836112ba565b915061104d82611466565b602082019050919050565b60006110656032836112ba565b91506110708261148f565b604082019050919050565b6000611088602e836112ba565b9150611093826114de565b604082019050919050565b6110a78161133d565b82525050565b60006020820190506110c26000830184610f9a565b92915050565b60006040820190506110dd6000830185610f9a565b6110ea6020830184610f9a565b9392505050565b60006060820190506111066000830186610f9a565b6111136020830185610f9a565b6111206040830184610f9a565b949350505050565b600060608201905061113d6000830186610f9a565b61114a6020830185610f9a565b611157604083018461109e565b949350505050565b60006040820190506111746000830185610f9a565b611181602083018461109e565b9392505050565b600060608201905061119d6000830186610f9a565b6111aa602083018561109e565b6111b76040830184610f9a565b949350505050565b600060208201905081810360008301526111d881610fa9565b9050919050565b600060208201905081810360008301526111f881610fcc565b9050919050565b6000602082019050818103600083015261121881610fef565b9050919050565b6000602082019050818103600083015261123881611012565b9050919050565b6000602082019050818103600083015261125881611035565b9050919050565b6000602082019050818103600083015261127881611058565b9050919050565b600060208201905081810360008301526112988161107b565b9050919050565b60006020820190506112b4600083018461109e565b92915050565b600082825260208201905092915050565b60006112d68261133d565b91506112e18361133d565b9250828210156112f4576112f3611347565b5b828203905092915050565b600061130a8261131d565b9050919050565b60008115159050919050565b600073ffffffffffffffffffffffffffffffffffffffff82169050919050565b6000819050919050565b7f4e487b7100000000000000000000000000000000000000000000000000000000600052601160045260246000fd5b7f5573657220686173206e6f7420617574686f72697a6564000000000000000000600082015250565b7f5472616e73666572206661696c65640000000000000000000000000000000000600082015250565b7f4f6e6c792074686520636f6e7472616374206f776e65722063616e2063616c6c60008201527f20746869732066756e6374696f6e000000000000000000000000000000000000602082015250565b7f5573657220686173206e6f7420617574686f72697a656420656e6f756768206160008201527f6d6f756e74000000000000000000000000000000000000000000000000000000602082015250565b7f416c6c6f77616e6365206e6f7420656e6f756768000000000000000000000000600082015250565b7f53656c6c657220646f6573206e6f74206861766520656e6f756768206173736560008201527f747320746f207365746c6c652074726164650000000000000000000000000000602082015250565b7f427579657220646f65736e74206861766520656e6f7567682066756e6473207460008201527f6f207365746c6c65207472616465000000000000000000000000000000000000602082015250565b611536816112ff565b811461154157600080fd5b50565b61154d81611311565b811461155857600080fd5b50565b6115648161133d565b811461156f57600080fd5b5056fea2646970667358221220406732986b14bf0cde0e9ba28e195281e6ef2759a151debd3a1460ec100b513a64736f6c63430008040033",
  "linkReferences": {},
  "deployedLinkReferences": {}
}