{
  "_format": "hh-sol-artifact-1",
  "contractName": "SupplyChain",
  "sourceName": "contracts/supplychain.sol",
  "abi": [
    {
      "inputs": [],
      "stateMutability": "nonpayable",
      "type": "constructor"
    },
    {
      "anonymous": false,
      "inputs": [
        {
          "indexed": false,
          "internalType": "string",
          "name": "id",
          "type": "string"
        },
        {
          "indexed": false,
          "internalType": "address",
          "name": "supplier",
          "type": "address"
        }
      ],
      "name": "MaterialRegistered",
      "type": "event"
    },
    {
      "anonymous": false,
      "inputs": [
        {
          "indexed": false,
          "internalType": "string",
          "name": "id",
          "type": "string"
        },
        {
          "indexed": false,
          "internalType": "string",
          "name": "newStatus",
          "type": "string"
        }
      ],
      "name": "MaterialStatusUpdated",
      "type": "event"
    },
    {
      "anonymous": false,
      "inputs": [
        {
          "indexed": false,
          "internalType": "address",
          "name": "supplier",
          "type": "address"
        },
        {
          "indexed": false,
          "internalType": "uint256",
          "name": "amount",
          "type": "uint256"
        }
      ],
      "name": "PaymentExecuted",
      "type": "event"
    },
    {
      "anonymous": false,
      "inputs": [
        {
          "indexed": false,
          "internalType": "uint256",
          "name": "productId",
          "type": "uint256"
        },
        {
          "indexed": false,
          "internalType": "enum SupplyChain.State",
          "name": "state",
          "type": "uint8"
        },
        {
          "indexed": false,
          "internalType": "address",
          "name": "owner",
          "type": "address"
        }
      ],
      "name": "ProductStateChanged",
      "type": "event"
    },
    {
      "inputs": [
        {
          "internalType": "string",
          "name": "_name",
          "type": "string"
        }
      ],
      "name": "createProduct",
      "outputs": [],
      "stateMutability": "nonpayable",
      "type": "function"
    },
    {
      "inputs": [
        {
          "internalType": "string",
          "name": "_id",
          "type": "string"
        },
        {
          "internalType": "uint256",
          "name": "_amount",
          "type": "uint256"
        }
      ],
      "name": "executePayment",
      "outputs": [],
      "stateMutability": "nonpayable",
      "type": "function"
    },
    {
      "inputs": [
        {
          "internalType": "string",
          "name": "_id",
          "type": "string"
        }
      ],
      "name": "getMaterial",
      "outputs": [
        {
          "components": [
            {
              "internalType": "string",
              "name": "id",
              "type": "string"
            },
            {
              "internalType": "string",
              "name": "description",
              "type": "string"
            },
            {
              "internalType": "address",
              "name": "supplier",
              "type": "address"
            },
            {
              "internalType": "bool",
              "name": "isVerified",
              "type": "bool"
            },
            {
              "internalType": "string",
              "name": "status",
              "type": "string"
            }
          ],
          "internalType": "struct SupplyChain.Material",
          "name": "",
          "type": "tuple"
        }
      ],
      "stateMutability": "view",
      "type": "function"
    },
    {
      "inputs": [
        {
          "internalType": "string",
          "name": "",
          "type": "string"
        }
      ],
      "name": "materials",
      "outputs": [
        {
          "internalType": "string",
          "name": "id",
          "type": "string"
        },
        {
          "internalType": "string",
          "name": "description",
          "type": "string"
        },
        {
          "internalType": "address",
          "name": "supplier",
          "type": "address"
        },
        {
          "internalType": "bool",
          "name": "isVerified",
          "type": "bool"
        },
        {
          "internalType": "string",
          "name": "status",
          "type": "string"
        }
      ],
      "stateMutability": "view",
      "type": "function"
    },
    {
      "inputs": [],
      "name": "owner",
      "outputs": [
        {
          "internalType": "address",
          "name": "",
          "type": "address"
        }
      ],
      "stateMutability": "view",
      "type": "function"
    },
    {
      "inputs": [],
      "name": "productCount",
      "outputs": [
        {
          "internalType": "uint256",
          "name": "",
          "type": "uint256"
        }
      ],
      "stateMutability": "view",
      "type": "function"
    },
    {
      "inputs": [
        {
          "internalType": "uint256",
          "name": "",
          "type": "uint256"
        }
      ],
      "name": "products",
      "outputs": [
        {
          "internalType": "uint256",
          "name": "id",
          "type": "uint256"
        },
        {
          "internalType": "string",
          "name": "name",
          "type": "string"
        },
        {
          "internalType": "enum SupplyChain.State",
          "name": "state",
          "type": "uint8"
        },
        {
          "internalType": "address",
          "name": "owner",
          "type": "address"
        }
      ],
      "stateMutability": "view",
      "type": "function"
    },
    {
      "inputs": [
        {
          "internalType": "string",
          "name": "_id",
          "type": "string"
        },
        {
          "internalType": "string",
          "name": "_description",
          "type": "string"
        }
      ],
      "name": "registerMaterial",
      "outputs": [],
      "stateMutability": "nonpayable",
      "type": "function"
    },
    {
      "inputs": [
        {
          "internalType": "uint256",
          "name": "_productId",
          "type": "uint256"
        },
        {
          "internalType": "address",
          "name": "_newOwner",
          "type": "address"
        }
      ],
      "name": "transferProductOwnership",
      "outputs": [],
      "stateMutability": "nonpayable",
      "type": "function"
    },
    {
      "inputs": [
        {
          "internalType": "string",
          "name": "_id",
          "type": "string"
        },
        {
          "internalType": "string",
          "name": "_newStatus",
          "type": "string"
        }
      ],
      "name": "updateMaterialStatus",
      "outputs": [],
      "stateMutability": "nonpayable",
      "type": "function"
    },
    {
      "inputs": [
        {
          "internalType": "uint256",
          "name": "_productId",
          "type": "uint256"
        },
        {
          "internalType": "enum SupplyChain.State",
          "name": "_newState",
          "type": "uint8"
        }
      ],
      "name": "updateProductState",
      "outputs": [],
      "stateMutability": "nonpayable",
      "type": "function"
    },
    {
      "inputs": [
        {
          "internalType": "string",
          "name": "_id",
          "type": "string"
        }
      ],
      "name": "verifySupplier",
      "outputs": [],
      "stateMutability": "nonpayable",
      "type": "function"
    },
    {
      "inputs": [],
      "name": "withdrawBalance",
      "outputs": [],
      "stateMutability": "nonpayable",
      "type": "function"
    },
    {
      "stateMutability": "payable",
      "type": "receive"
    }
  ],
  "bytecode": "0x6080604052600060035534801561001557600080fd5b5033600260006101000a81548173ffffffffffffffffffffffffffffffffffffffff021916908373ffffffffffffffffffffffffffffffffffffffff16021790555061227d806100666000396000f3fe6080604052600436106100c65760003560e01c806386b0e8121161007f578063a550184111610059578063a550184114610262578063bec514c31461028b578063c71f5100146102b4578063e0f6ef87146102f1576100cd565b806386b0e812146101cd5780638da5cb5b146101f657806391347df414610221576100cd565b806302ec06be146100d2578063149ba83a146100fb5780634334bfeb146101245780635fd8c7101461014d5780636acb7bcc146101645780637acc0b201461018d576100cd565b366100cd57005b600080fd5b3480156100de57600080fd5b506100f960048036038101906100f49190611729565b61031c565b005b34801561010757600080fd5b50610122600480360381019061011d91906117d6565b6104c2565b005b34801561013057600080fd5b5061014b6004803603810190610146919061176a565b610777565b005b34801561015957600080fd5b50610162610978565b005b34801561017057600080fd5b5061018b60048036038101906101869190611729565b610a73565b005b34801561019957600080fd5b506101b460048036038101906101af919061182a565b610be6565b6040516101c49493929190611dd4565b60405180910390f35b3480156101d957600080fd5b506101f460048036038101906101ef9190611853565b610ccb565b005b34801561020257600080fd5b5061020b610e23565b6040516102189190611b58565b60405180910390f35b34801561022d57600080fd5b5061024860048036038101906102439190611729565b610e49565b604051610259959493929190611c03565b60405180910390f35b34801561026e57600080fd5b506102896004803603810190610284919061176a565b61105a565b005b34801561029757600080fd5b506102b260048036038101906102ad919061188f565b6111ee565b005b3480156102c057600080fd5b506102db60048036038101906102d69190611729565b611333565b6040516102e89190611d60565b60405180910390f35b3480156102fd57600080fd5b50610306611592565b6040516103139190611d82565b60405180910390f35b6003600081548092919061032f90611fc0565b91905055506040518060800160405280600354815260200182815260200160006006811115610387577f4e487b7100000000000000000000000000000000000000000000000000000000600052602160045260246000fd5b81526020013373ffffffffffffffffffffffffffffffffffffffff1681525060008060035481526020019081526020016000206000820151816000015560208201518160010190805190602001906103e0929190611598565b5060408201518160020160006101000a81548160ff02191690836006811115610432577f4e487b7100000000000000000000000000000000000000000000000000000000600052602160045260246000fd5b021790555060608201518160020160016101000a81548173ffffffffffffffffffffffffffffffffffffffff021916908373ffffffffffffffffffffffffffffffffffffffff1602179055509050507f341aa48f481d1bfe6b0420acbbf708fb50d404d7339ae91fc75e51a77f1363cb6003546000336040516104b793929190611d9d565b60405180910390a150565b600260009054906101000a900473ffffffffffffffffffffffffffffffffffffffff1673ffffffffffffffffffffffffffffffffffffffff163373ffffffffffffffffffffffffffffffffffffffff1614610552576040517f08c379a000000000000000000000000000000000000000000000000000000000815260040161054990611d20565b60405180910390fd5b6001826040516105629190611b41565b908152602001604051809103902060020160149054906101000a900460ff166105c0576040517f08c379a00000000000000000000000000000000000000000000000000000000081526004016105b790611cc0565b60405180910390fd5b600073ffffffffffffffffffffffffffffffffffffffff166001836040516105e89190611b41565b908152602001604051809103902060020160009054906101000a900473ffffffffffffffffffffffffffffffffffffffff1673ffffffffffffffffffffffffffffffffffffffff161415610671576040517f08c379a000000000000000000000000000000000000000000000000000000000815260040161066890611d00565b60405180910390fd5b6001826040516106819190611b41565b908152602001604051809103902060020160009054906101000a900473ffffffffffffffffffffffffffffffffffffffff1673ffffffffffffffffffffffffffffffffffffffff166108fc829081150290604051600060405180830381858888f193505050501580156106f8573d6000803e3d6000fd5b507fc7b16f0c91d6e099a9fb831632a80052954f1f27b4c358262703709988e6985660018360405161072a9190611b41565b908152602001604051809103902060020160009054906101000a900473ffffffffffffffffffffffffffffffffffffffff168260405161076b929190611b73565b60405180910390a15050565b60006001836040516107899190611b41565b908152602001604051809103902060000180546107a590611f5d565b9050146107e7576040517f08c379a00000000000000000000000000000000000000000000000000000000081526004016107de90611ce0565b60405180910390fd5b6040518060a001604052808381526020018281526020013373ffffffffffffffffffffffffffffffffffffffff1681526020016000151581526020016040518060400160405280600a81526020017f726567697374657265640000000000000000000000000000000000000000000081525081525060018360405161086c9190611b41565b90815260200160405180910390206000820151816000019080519060200190610896929190611598565b5060208201518160010190805190602001906108b3929190611598565b5060408201518160020160006101000a81548173ffffffffffffffffffffffffffffffffffffffff021916908373ffffffffffffffffffffffffffffffffffffffff16021790555060608201518160020160146101000a81548160ff0219169083151502179055506080820151816003019080519060200190610937929190611598565b509050507fdc233ad14988ddabe7dcd0d8e777ec425d5cd237528711bdd943d60d1ca81c80823360405161096c929190611b9c565b60405180910390a15050565b600260009054906101000a900473ffffffffffffffffffffffffffffffffffffffff1673ffffffffffffffffffffffffffffffffffffffff163373ffffffffffffffffffffffffffffffffffffffff1614610a08576040517f08c379a00000000000000000000000000000000000000000000000000000000081526004016109ff90611d20565b60405180910390fd5b600260009054906101000a900473ffffffffffffffffffffffffffffffffffffffff1673ffffffffffffffffffffffffffffffffffffffff166108fc479081150290604051600060405180830381858888f19350505050158015610a70573d6000803e3d6000fd5b50565b600260009054906101000a900473ffffffffffffffffffffffffffffffffffffffff1673ffffffffffffffffffffffffffffffffffffffff163373ffffffffffffffffffffffffffffffffffffffff1614610b03576040517f08c379a0000000000000000000000000000000000000000000000000000000008152600401610afa90611d20565b60405180910390fd5b6000600182604051610b159190611b41565b90815260200160405180910390206000018054610b3190611f5d565b905011610b73576040517f08c379a0000000000000000000000000000000000000000000000000000000008152600401610b6a90611d40565b60405180910390fd5b60018082604051610b849190611b41565b908152602001604051809103902060020160146101000a81548160ff0219169083151502179055507f87f806108f4707ca6343979f80e4ba35535ccde5b508d519f51b5c129679659581604051610bdb9190611c6b565b60405180910390a150565b6000602052806000526040600020600091509050806000015490806001018054610c0f90611f5d565b80601f0160208091040260200160405190810160405280929190818152602001828054610c3b90611f5d565b8015610c885780601f10610c5d57610100808354040283529160200191610c88565b820191906000526020600020905b815481529060010190602001808311610c6b57829003601f168201915b5050505050908060020160009054906101000a900460ff16908060020160019054906101000a900473ffffffffffffffffffffffffffffffffffffffff16905084565b3373ffffffffffffffffffffffffffffffffffffffff1660008084815260200190815260200160002060020160019054906101000a900473ffffffffffffffffffffffffffffffffffffffff1673ffffffffffffffffffffffffffffffffffffffff1614610d6e576040517f08c379a0000000000000000000000000000000000000000000000000000000008152600401610d6590611ca0565b60405180910390fd5b8060008084815260200190815260200160002060020160016101000a81548173ffffffffffffffffffffffffffffffffffffffff021916908373ffffffffffffffffffffffffffffffffffffffff1602179055507f341aa48f481d1bfe6b0420acbbf708fb50d404d7339ae91fc75e51a77f1363cb8260008085815260200190815260200160002060020160009054906101000a900460ff1683604051610e1793929190611d9d565b60405180910390a15050565b600260009054906101000a900473ffffffffffffffffffffffffffffffffffffffff1681565b600181805160208101820180518482526020830160208501208183528095505050505050600091509050806000018054610e8290611f5d565b80601f0160208091040260200160405190810160405280929190818152602001828054610eae90611f5d565b8015610efb5780601f10610ed057610100808354040283529160200191610efb565b820191906000526020600020905b815481529060010190602001808311610ede57829003601f168201915b505050505090806001018054610f1090611f5d565b80601f0160208091040260200160405190810160405280929190818152602001828054610f3c90611f5d565b8015610f895780601f10610f5e57610100808354040283529160200191610f89565b820191906000526020600020905b815481529060010190602001808311610f6c57829003601f168201915b5050505050908060020160009054906101000a900473ffffffffffffffffffffffffffffffffffffffff16908060020160149054906101000a900460ff1690806003018054610fd790611f5d565b80601f016020809104026020016040519081016040528092919081815260200182805461100390611f5d565b80156110505780601f1061102557610100808354040283529160200191611050565b820191906000526020600020905b81548152906001019060200180831161103357829003601f168201915b5050505050905085565b8160018160405161106b9190611b41565b908152602001604051809103902060020160009054906101000a900473ffffffffffffffffffffffffffffffffffffffff1673ffffffffffffffffffffffffffffffffffffffff163373ffffffffffffffffffffffffffffffffffffffff161461110a576040517f08c379a000000000000000000000000000000000000000000000000000000000815260040161110190611d20565b60405180910390fd5b600060018460405161111c9190611b41565b9081526020016040518091039020600001805461113890611f5d565b90501161117a576040517f08c379a000000000000000000000000000000000000000000000000000000000815260040161117190611d40565b60405180910390fd5b8160018460405161118b9190611b41565b908152602001604051809103902060030190805190602001906111af929190611598565b507f87f806108f4707ca6343979f80e4ba35535ccde5b508d519f51b5c129679659583836040516111e1929190611bcc565b60405180910390a1505050565b3373ffffffffffffffffffffffffffffffffffffffff1660008084815260200190815260200160002060020160019054906101000a900473ffffffffffffffffffffffffffffffffffffffff1673ffffffffffffffffffffffffffffffffffffffff1614611291576040517f08c379a000000000000000000000000000000000000000000000000000000000815260040161128890611ca0565b60405180910390fd5b8060008084815260200190815260200160002060020160006101000a81548160ff021916908360068111156112ef577f4e487b7100000000000000000000000000000000000000000000000000000000600052602160045260246000fd5b02179055507f341aa48f481d1bfe6b0420acbbf708fb50d404d7339ae91fc75e51a77f1363cb82823360405161132793929190611d9d565b60405180910390a15050565b61133b61161e565b60018260405161134b9190611b41565b90815260200160405180910390206040518060a001604052908160008201805461137490611f5d565b80601f01602080910402602001604051908101604052809291908181526020018280546113a090611f5d565b80156113ed5780601f106113c2576101008083540402835291602001916113ed565b820191906000526020600020905b8154815290600101906020018083116113d057829003601f168201915b5050505050815260200160018201805461140690611f5d565b80601f016020809104026020016040519081016040528092919081815260200182805461143290611f5d565b801561147f5780601f106114545761010080835404028352916020019161147f565b820191906000526020600020905b81548152906001019060200180831161146257829003601f168201915b505050505081526020016002820160009054906101000a900473ffffffffffffffffffffffffffffffffffffffff1673ffffffffffffffffffffffffffffffffffffffff1673ffffffffffffffffffffffffffffffffffffffff1681526020016002820160149054906101000a900460ff1615151515815260200160038201805461150990611f5d565b80601f016020809104026020016040519081016040528092919081815260200182805461153590611f5d565b80156115825780601f1061155757610100808354040283529160200191611582565b820191906000526020600020905b81548152906001019060200180831161156557829003601f168201915b5050505050815250509050919050565b60035481565b8280546115a490611f5d565b90600052602060002090601f0160209004810192826115c6576000855561160d565b82601f106115df57805160ff191683800117855561160d565b8280016001018555821561160d579182015b8281111561160c5782518255916020019190600101906115f1565b5b50905061161a9190611665565b5090565b6040518060a001604052806060815260200160608152602001600073ffffffffffffffffffffffffffffffffffffffff168152602001600015158152602001606081525090565b5b8082111561167e576000816000905550600101611666565b5090565b600061169561169084611e45565b611e20565b9050828152602081018484840111156116ad57600080fd5b6116b8848285611f1b565b509392505050565b6000813590506116cf81612209565b92915050565b6000813590506116e481612220565b92915050565b600082601f8301126116fb57600080fd5b813561170b848260208601611682565b91505092915050565b60008135905061172381612230565b92915050565b60006020828403121561173b57600080fd5b600082013567ffffffffffffffff81111561175557600080fd5b611761848285016116ea565b91505092915050565b6000806040838503121561177d57600080fd5b600083013567ffffffffffffffff81111561179757600080fd5b6117a3858286016116ea565b925050602083013567ffffffffffffffff8111156117c057600080fd5b6117cc858286016116ea565b9150509250929050565b600080604083850312156117e957600080fd5b600083013567ffffffffffffffff81111561180357600080fd5b61180f858286016116ea565b925050602061182085828601611714565b9150509250929050565b60006020828403121561183c57600080fd5b600061184a84828501611714565b91505092915050565b6000806040838503121561186657600080fd5b600061187485828601611714565b9250506020611885858286016116c0565b9150509250929050565b600080604083850312156118a257600080fd5b60006118b085828601611714565b92505060206118c1858286016116d5565b9150509250929050565b6118d481611eae565b82525050565b6118e381611eae565b82525050565b6118f281611ec0565b82525050565b61190181611ec0565b82525050565b61191081611f09565b82525050565b600061192182611e76565b61192b8185611e81565b935061193b818560208601611f2a565b611944816120c5565b840191505092915050565b600061195a82611e76565b6119648185611e92565b9350611974818560208601611f2a565b61197d816120c5565b840191505092915050565b600061199382611e76565b61199d8185611ea3565b93506119ad818560208601611f2a565b80840191505092915050565b60006119c6601583611e92565b91506119d1826120d6565b602082019050919050565b60006119e9600883611e92565b91506119f4826120ff565b602082019050919050565b6000611a0c601583611e92565b9150611a1782612128565b602082019050919050565b6000611a2f601783611e92565b9150611a3a82612151565b602082019050919050565b6000611a52601283611e92565b9150611a5d8261217a565b602082019050919050565b6000611a75600e83611e92565b9150611a80826121a3565b602082019050919050565b6000611a98601283611e92565b9150611aa3826121cc565b602082019050919050565b600060a0830160008301518482036000860152611acb8282611916565b91505060208301518482036020860152611ae58282611916565b9150506040830151611afa60408601826118cb565b506060830151611b0d60608601826118e9565b5060808301518482036080860152611b258282611916565b9150508091505092915050565b611b3b81611eff565b82525050565b6000611b4d8284611988565b915081905092915050565b6000602082019050611b6d60008301846118da565b92915050565b6000604082019050611b8860008301856118da565b611b956020830184611b32565b9392505050565b60006040820190508181036000830152611bb6818561194f565b9050611bc560208301846118da565b9392505050565b60006040820190508181036000830152611be6818561194f565b90508181036020830152611bfa818461194f565b90509392505050565b600060a0820190508181036000830152611c1d818861194f565b90508181036020830152611c31818761194f565b9050611c4060408301866118da565b611c4d60608301856118f8565b8181036080830152611c5f818461194f565b90509695505050505050565b60006040820190508181036000830152611c85818461194f565b90508181036020830152611c98816119dc565b905092915050565b60006020820190508181036000830152611cb9816119b9565b9050919050565b60006020820190508181036000830152611cd9816119ff565b9050919050565b60006020820190508181036000830152611cf981611a22565b9050919050565b60006020820190508181036000830152611d1981611a45565b9050919050565b60006020820190508181036000830152611d3981611a68565b9050919050565b60006020820190508181036000830152611d5981611a8b565b9050919050565b60006020820190508181036000830152611d7a8184611aae565b905092915050565b6000602082019050611d976000830184611b32565b92915050565b6000606082019050611db26000830186611b32565b611dbf6020830185611907565b611dcc60408301846118da565b949350505050565b6000608082019050611de96000830187611b32565b8181036020830152611dfb818661194f565b9050611e0a6040830185611907565b611e1760608301846118da565b95945050505050565b6000611e2a611e3b565b9050611e368282611f8f565b919050565b6000604051905090565b600067ffffffffffffffff821115611e6057611e5f612096565b5b611e69826120c5565b9050602081019050919050565b600081519050919050565b600082825260208201905092915050565b600082825260208201905092915050565b600081905092915050565b6000611eb982611edf565b9050919050565b60008115159050919050565b6000819050611eda826121f5565b919050565b600073ffffffffffffffffffffffffffffffffffffffff82169050919050565b6000819050919050565b6000611f1482611ecc565b9050919050565b82818337600083830152505050565b60005b83811015611f48578082015181840152602081019050611f2d565b83811115611f57576000848401525b50505050565b60006002820490506001821680611f7557607f821691505b60208210811415611f8957611f88612067565b5b50919050565b611f98826120c5565b810181811067ffffffffffffffff82111715611fb757611fb6612096565b5b80604052505050565b6000611fcb82611eff565b91507fffffffffffffffffffffffffffffffffffffffffffffffffffffffffffffffff821415611ffe57611ffd612009565b5b600182019050919050565b7f4e487b7100000000000000000000000000000000000000000000000000000000600052601160045260246000fd5b7f4e487b7100000000000000000000000000000000000000000000000000000000600052602160045260246000fd5b7f4e487b7100000000000000000000000000000000000000000000000000000000600052602260045260246000fd5b7f4e487b7100000000000000000000000000000000000000000000000000000000600052604160045260246000fd5b6000601f19601f8301169050919050565b7f4e6f74207468652070726f64756374206f776e65720000000000000000000000600082015250565b7f7665726966696564000000000000000000000000000000000000000000000000600082015250565b7f4d6174657269616c206e6f742076657269666965640000000000000000000000600082015250565b7f4d6174657269616c20616c726561647920657869737473000000000000000000600082015250565b7f537570706c696572206e6f7420666f756e640000000000000000000000000000600082015250565b7f4e6f7420617574686f72697a6564000000000000000000000000000000000000600082015250565b7f4d6174657269616c206e6f7420666f756e640000000000000000000000000000600082015250565b6007811061220657612205612038565b5b50565b61221281611eae565b811461221d57600080fd5b50565b6007811061222d57600080fd5b50565b61223981611eff565b811461224457600080fd5b5056fea264697066735822122042be9428e96881f565459d5842459e16ad7fbf1377182a65a7b3ed692880bfa464736f6c63430008040033",
  "linkReferences": {},
  "deployedLinkReferences": {}
}