{
  "_format": "hh-sol-artifact-1",
  "contractName": "SupplyChain",
  "sourceName": "contracts/supplychain.sol",
  "abi": [
    {
      "inputs": [],
      "stateMutability": "nonpayable",
      "type": "constructor"
    },
    {
      "anonymous": false,
      "inputs": [
        {
          "indexed": false,
          "internalType": "uint256",
          "name": "productId",
          "type": "uint256"
        },
        {
          "indexed": false,
          "internalType": "string",
          "name": "location",
          "type": "string"
        },
        {
          "indexed": false,
          "internalType": "string",
          "name": "status",
          "type": "string"
        },
        {
          "indexed": false,
          "internalType": "uint256",
          "name": "timestamp",
          "type": "uint256"
        }
      ],
      "name": "LogisticCheckpointRecorded",
      "type": "event"
    },
    {
      "anonymous": false,
      "inputs": [
        {
          "indexed": false,
          "internalType": "string",
          "name": "id",
          "type": "string"
        },
        {
          "indexed": false,
          "internalType": "address",
          "name": "supplier",
          "type": "address"
        }
      ],
      "name": "MaterialRegistered",
      "type": "event"
    },
    {
      "anonymous": false,
      "inputs": [
        {
          "indexed": false,
          "internalType": "string",
          "name": "id",
          "type": "string"
        },
        {
          "indexed": false,
          "internalType": "string",
          "name": "newStatus",
          "type": "string"
        }
      ],
      "name": "MaterialStatusUpdated",
      "type": "event"
    },
    {
      "anonymous": false,
      "inputs": [
        {
          "indexed": false,
          "internalType": "address",
          "name": "supplier",
          "type": "address"
        },
        {
          "indexed": false,
          "internalType": "uint256",
          "name": "amount",
          "type": "uint256"
        }
      ],
      "name": "PaymentExecuted",
      "type": "event"
    },
    {
      "anonymous": false,
      "inputs": [
        {
          "indexed": false,
          "internalType": "uint256",
          "name": "productId",
          "type": "uint256"
        },
        {
          "indexed": false,
          "internalType": "enum SupplyChain.State",
          "name": "state",
          "type": "uint8"
        },
        {
          "indexed": false,
          "internalType": "address",
          "name": "owner",
          "type": "address"
        }
      ],
      "name": "ProductStateChanged",
      "type": "event"
    },
    {
      "anonymous": false,
      "inputs": [
        {
          "indexed": false,
          "internalType": "address",
          "name": "supplier",
          "type": "address"
        }
      ],
      "name": "SupplierVerified",
      "type": "event"
    },
    {
      "inputs": [
        {
          "internalType": "string",
          "name": "_name",
          "type": "string"
        }
      ],
      "name": "createProduct",
      "outputs": [],
      "stateMutability": "nonpayable",
      "type": "function"
    },
    {
      "inputs": [
        {
          "internalType": "string",
          "name": "_id",
          "type": "string"
        },
        {
          "internalType": "uint256",
          "name": "_amount",
          "type": "uint256"
        }
      ],
      "name": "executePayment",
      "outputs": [],
      "stateMutability": "nonpayable",
      "type": "function"
    },
    {
      "inputs": [
        {
          "internalType": "uint256",
          "name": "_productId",
          "type": "uint256"
        }
      ],
      "name": "getLogisticsHistory",
      "outputs": [
        {
          "components": [
            {
              "internalType": "string",
              "name": "location",
              "type": "string"
            },
            {
              "internalType": "uint256",
              "name": "timestamp",
              "type": "uint256"
            },
            {
              "internalType": "string",
              "name": "status",
              "type": "string"
            }
          ],
          "internalType": "struct SupplyChain.LogisticCheckpoint[]",
          "name": "",
          "type": "tuple[]"
        }
      ],
      "stateMutability": "view",
      "type": "function"
    },
    {
      "inputs": [
        {
          "internalType": "string",
          "name": "_id",
          "type": "string"
        }
      ],
      "name": "getMaterial",
      "outputs": [
        {
          "components": [
            {
              "internalType": "string",
              "name": "id",
              "type": "string"
            },
            {
              "internalType": "string",
              "name": "description",
              "type": "string"
            },
            {
              "internalType": "address",
              "name": "supplier",
              "type": "address"
            },
            {
              "internalType": "bool",
              "name": "isVerified",
              "type": "bool"
            },
            {
              "internalType": "string",
              "name": "status",
              "type": "string"
            }
          ],
          "internalType": "struct SupplyChain.Material",
          "name": "",
          "type": "tuple"
        }
      ],
      "stateMutability": "view",
      "type": "function"
    },
    {
      "inputs": [
        {
          "internalType": "string",
          "name": "",
          "type": "string"
        }
      ],
      "name": "materials",
      "outputs": [
        {
          "internalType": "string",
          "name": "id",
          "type": "string"
        },
        {
          "internalType": "string",
          "name": "description",
          "type": "string"
        },
        {
          "internalType": "address",
          "name": "supplier",
          "type": "address"
        },
        {
          "internalType": "bool",
          "name": "isVerified",
          "type": "bool"
        },
        {
          "internalType": "string",
          "name": "status",
          "type": "string"
        }
      ],
      "stateMutability": "view",
      "type": "function"
    },
    {
      "inputs": [],
      "name": "owner",
      "outputs": [
        {
          "internalType": "address",
          "name": "",
          "type": "address"
        }
      ],
      "stateMutability": "view",
      "type": "function"
    },
    {
      "inputs": [],
      "name": "productCount",
      "outputs": [
        {
          "internalType": "uint256",
          "name": "",
          "type": "uint256"
        }
      ],
      "stateMutability": "view",
      "type": "function"
    },
    {
      "inputs": [
        {
          "internalType": "uint256",
          "name": "",
          "type": "uint256"
        },
        {
          "internalType": "uint256",
          "name": "",
          "type": "uint256"
        }
      ],
      "name": "productLogistics",
      "outputs": [
        {
          "internalType": "string",
          "name": "location",
          "type": "string"
        },
        {
          "internalType": "uint256",
          "name": "timestamp",
          "type": "uint256"
        },
        {
          "internalType": "string",
          "name": "status",
          "type": "string"
        }
      ],
      "stateMutability": "view",
      "type": "function"
    },
    {
      "inputs": [
        {
          "internalType": "uint256",
          "name": "",
          "type": "uint256"
        }
      ],
      "name": "products",
      "outputs": [
        {
          "internalType": "uint256",
          "name": "id",
          "type": "uint256"
        },
        {
          "internalType": "string",
          "name": "name",
          "type": "string"
        },
        {
          "internalType": "enum SupplyChain.State",
          "name": "state",
          "type": "uint8"
        },
        {
          "internalType": "address",
          "name": "owner",
          "type": "address"
        }
      ],
      "stateMutability": "view",
      "type": "function"
    },
    {
      "inputs": [
        {
          "internalType": "uint256",
          "name": "_productId",
          "type": "uint256"
        },
        {
          "internalType": "string",
          "name": "_location",
          "type": "string"
        },
        {
          "internalType": "string",
          "name": "_status",
          "type": "string"
        }
      ],
      "name": "recordLogisticCheckpoint",
      "outputs": [],
      "stateMutability": "nonpayable",
      "type": "function"
    },
    {
      "inputs": [
        {
          "internalType": "string",
          "name": "_id",
          "type": "string"
        },
        {
          "internalType": "string",
          "name": "_description",
          "type": "string"
        }
      ],
      "name": "registerMaterial",
      "outputs": [],
      "stateMutability": "nonpayable",
      "type": "function"
    },
    {
      "inputs": [
        {
          "internalType": "uint256",
          "name": "_productId",
          "type": "uint256"
        },
        {
          "internalType": "address",
          "name": "_newOwner",
          "type": "address"
        }
      ],
      "name": "transferProductOwnership",
      "outputs": [],
      "stateMutability": "nonpayable",
      "type": "function"
    },
    {
      "inputs": [
        {
          "internalType": "string",
          "name": "_id",
          "type": "string"
        },
        {
          "internalType": "string",
          "name": "_newStatus",
          "type": "string"
        }
      ],
      "name": "updateMaterialStatus",
      "outputs": [],
      "stateMutability": "nonpayable",
      "type": "function"
    },
    {
      "inputs": [
        {
          "internalType": "uint256",
          "name": "_productId",
          "type": "uint256"
        },
        {
          "internalType": "enum SupplyChain.State",
          "name": "_newState",
          "type": "uint8"
        }
      ],
      "name": "updateProductState",
      "outputs": [],
      "stateMutability": "nonpayable",
      "type": "function"
    },
    {
      "inputs": [
        {
          "internalType": "address",
          "name": "",
          "type": "address"
        }
      ],
      "name": "verifiedSuppliers",
      "outputs": [
        {
          "internalType": "bool",
          "name": "",
          "type": "bool"
        }
      ],
      "stateMutability": "view",
      "type": "function"
    },
    {
      "inputs": [
        {
          "internalType": "address",
          "name": "_supplier",
          "type": "address"
        }
      ],
      "name": "verifySupplier",
      "outputs": [],
      "stateMutability": "nonpayable",
      "type": "function"
    },
    {
      "stateMutability": "payable",
      "type": "receive"
    }
  ],
  "bytecode": "0x6080604052600060045534801561001557600080fd5b5033600360006101000a81548173ffffffffffffffffffffffffffffffffffffffff021916908373ffffffffffffffffffffffffffffffffffffffff160217905550612de3806100666000396000f3fe6080604052600436106100f75760003560e01c806386b0e8121161008a578063bec514c311610059578063bec514c314610348578063c71f510014610371578063e0f6ef87146103ae578063f2acc8e6146103d9576100fe565b806386b0e8121461028a5780638da5cb5b146102b357806391347df4146102de578063a55018411461031f576100fe565b80634334bfeb116100c65780634334bfeb146101cf5780634959e087146101f85780637837c4fc146102215780637acc0b201461024a576100fe565b806302ec06be14610103578063149ba83a1461012c57806323a8afe81461015557806324d4443b14610192576100fe565b366100fe57005b600080fd5b34801561010f57600080fd5b5061012a60048036038101906101259190611f14565b610418565b005b34801561013857600080fd5b50610153600480360381019061014e9190611fc1565b6105be565b005b34801561016157600080fd5b5061017c60048036038101906101779190611eeb565b610873565b6040516101899190612599565b60405180910390f35b34801561019e57600080fd5b506101b960048036038101906101b49190612015565b610893565b6040516101c69190612577565b60405180910390f35b3480156101db57600080fd5b506101f660048036038101906101f19190611f55565b610a33565b005b34801561020457600080fd5b5061021f600480360381019061021a9190611eeb565b610cc0565b005b34801561022d57600080fd5b50610248600480360381019061024391906120b6565b610e52565b005b34801561025657600080fd5b50610271600480360381019061026c9190612015565b6111f4565b604051610281949392919061285c565b60405180910390f35b34801561029657600080fd5b506102b160048036038101906102ac919061203e565b6112d9565b005b3480156102bf57600080fd5b506102c8611433565b6040516102d59190612533565b60405180910390f35b3480156102ea57600080fd5b5061030560048036038101906103009190611f14565b611459565b60405161031695949392919061261b565b60405180910390f35b34801561032b57600080fd5b5061034660048036038101906103419190611f55565b61166a565b005b34801561035457600080fd5b5061036f600480360381019061036a919061207a565b6117fe565b005b34801561037d57600080fd5b5061039860048036038101906103939190611f14565b611945565b6040516103a591906127e8565b60405180910390f35b3480156103ba57600080fd5b506103c3611ba4565b6040516103d0919061280a565b60405180910390f35b3480156103e557600080fd5b5061040060048036038101906103fb9190612135565b611baa565b60405161040f93929190612683565b60405180910390f35b6004600081548092919061042b90612ad4565b91905055506040518060800160405280600454815260200182815260200160006007811115610483577f4e487b7100000000000000000000000000000000000000000000000000000000600052602160045260246000fd5b81526020013373ffffffffffffffffffffffffffffffffffffffff1681525060008060045481526020019081526020016000206000820151816000015560208201518160010190805190602001906104dc929190611d5a565b5060408201518160020160006101000a81548160ff0219169083600781111561052e577f4e487b7100000000000000000000000000000000000000000000000000000000600052602160045260246000fd5b021790555060608201518160020160016101000a81548173ffffffffffffffffffffffffffffffffffffffff021916908373ffffffffffffffffffffffffffffffffffffffff1602179055509050507f341aa48f481d1bfe6b0420acbbf708fb50d404d7339ae91fc75e51a77f1363cb6004546000336040516105b393929190612825565b60405180910390a150565b600360009054906101000a900473ffffffffffffffffffffffffffffffffffffffff1673ffffffffffffffffffffffffffffffffffffffff163373ffffffffffffffffffffffffffffffffffffffff161461064e576040517f08c379a0000000000000000000000000000000000000000000000000000000008152600401610645906127a8565b60405180910390fd5b60018260405161065e919061251c565b908152602001604051809103902060020160149054906101000a900460ff166106bc576040517f08c379a00000000000000000000000000000000000000000000000000000000081526004016106b3906126e8565b60405180910390fd5b600073ffffffffffffffffffffffffffffffffffffffff166001836040516106e4919061251c565b908152602001604051809103902060020160009054906101000a900473ffffffffffffffffffffffffffffffffffffffff1673ffffffffffffffffffffffffffffffffffffffff16141561076d576040517f08c379a000000000000000000000000000000000000000000000000000000000815260040161076490612768565b60405180910390fd5b60018260405161077d919061251c565b908152602001604051809103902060020160009054906101000a900473ffffffffffffffffffffffffffffffffffffffff1673ffffffffffffffffffffffffffffffffffffffff166108fc829081150290604051600060405180830381858888f193505050501580156107f4573d6000803e3d6000fd5b507fc7b16f0c91d6e099a9fb831632a80052954f1f27b4c358262703709988e69856600183604051610826919061251c565b908152602001604051809103902060020160009054906101000a900473ffffffffffffffffffffffffffffffffffffffff168260405161086792919061254e565b60405180910390a15050565b60056020528060005260406000206000915054906101000a900460ff1681565b606060026000838152602001908152602001600020805480602002602001604051908101604052809291908181526020016000905b82821015610a2857838290600052602060002090600302016040518060600160405290816000820180546108fb90612a71565b80601f016020809104026020016040519081016040528092919081815260200182805461092790612a71565b80156109745780601f1061094957610100808354040283529160200191610974565b820191906000526020600020905b81548152906001019060200180831161095757829003601f168201915b505050505081526020016001820154815260200160028201805461099790612a71565b80601f01602080910402602001604051908101604052809291908181526020018280546109c390612a71565b8015610a105780601f106109e557610100808354040283529160200191610a10565b820191906000526020600020905b8154815290600101906020018083116109f357829003601f168201915b505050505081525050815260200190600101906108c8565b505050509050919050565b600560003373ffffffffffffffffffffffffffffffffffffffff1673ffffffffffffffffffffffffffffffffffffffff16815260200190815260200160002060009054906101000a900460ff16610abf576040517f08c379a0000000000000000000000000000000000000000000000000000000008152600401610ab690612788565b60405180910390fd5b6000600183604051610ad1919061251c565b90815260200160405180910390206000018054610aed90612a71565b905014610b2f576040517f08c379a0000000000000000000000000000000000000000000000000000000008152600401610b2690612748565b60405180910390fd5b6040518060a001604052808381526020018281526020013373ffffffffffffffffffffffffffffffffffffffff1681526020016000151581526020016040518060400160405280600a81526020017f7265676973746572656400000000000000000000000000000000000000000000815250815250600183604051610bb4919061251c565b90815260200160405180910390206000820151816000019080519060200190610bde929190611d5a565b506020820151816001019080519060200190610bfb929190611d5a565b5060408201518160020160006101000a81548173ffffffffffffffffffffffffffffffffffffffff021916908373ffffffffffffffffffffffffffffffffffffffff16021790555060608201518160020160146101000a81548160ff0219169083151502179055506080820151816003019080519060200190610c7f929190611d5a565b509050507fdc233ad14988ddabe7dcd0d8e777ec425d5cd237528711bdd943d60d1ca81c808233604051610cb49291906125b4565b60405180910390a15050565b600360009054906101000a900473ffffffffffffffffffffffffffffffffffffffff1673ffffffffffffffffffffffffffffffffffffffff163373ffffffffffffffffffffffffffffffffffffffff1614610d50576040517f08c379a0000000000000000000000000000000000000000000000000000000008152600401610d47906127a8565b60405180910390fd5b600073ffffffffffffffffffffffffffffffffffffffff168173ffffffffffffffffffffffffffffffffffffffff161415610dc0576040517f08c379a0000000000000000000000000000000000000000000000000000000008152600401610db790612728565b60405180910390fd5b6001600560008373ffffffffffffffffffffffffffffffffffffffff1673ffffffffffffffffffffffffffffffffffffffff16815260200190815260200160002060006101000a81548160ff0219169083151502179055507fed90401a02150ad640559143124523c07fd1465d0b36a711654112f57370401481604051610e479190612533565b60405180910390a150565b823373ffffffffffffffffffffffffffffffffffffffff1660008083815260200190815260200160002060020160019054906101000a900473ffffffffffffffffffffffffffffffffffffffff1673ffffffffffffffffffffffffffffffffffffffff1614610ef6576040517f08c379a0000000000000000000000000000000000000000000000000000000008152600401610eed906126c8565b60405180910390fd5b60056007811115610f30577f4e487b7100000000000000000000000000000000000000000000000000000000600052602160045260246000fd5b60008086815260200190815260200160002060020160009054906101000a900460ff166007811115610f8b577f4e487b7100000000000000000000000000000000000000000000000000000000600052602160045260246000fd5b1480611029575060066007811115610fcc577f4e487b7100000000000000000000000000000000000000000000000000000000600052602160045260246000fd5b60008086815260200190815260200160002060020160009054906101000a900460ff166007811115611027577f4e487b7100000000000000000000000000000000000000000000000000000000600052602160045260246000fd5b145b611068576040517f08c379a000000000000000000000000000000000000000000000000000000000815260040161105f90612708565b60405180910390fd5b60006040518060600160405280858152602001428152602001848152509050600660078111156110c1577f4e487b7100000000000000000000000000000000000000000000000000000000600052602160045260246000fd5b60008087815260200190815260200160002060020160009054906101000a900460ff16600781111561111c577f4e487b7100000000000000000000000000000000000000000000000000000000600052602160045260246000fd5b141561112d5761112b33611d01565b505b600260008681526020019081526020016000208190806001815401808255809150506001900390600052602060002090600302016000909190919091506000820151816000019080519060200190611186929190611d5a565b506020820151816001015560408201518160020190805190602001906111ad929190611d5a565b5050507f87ff335251b3fe5e30b57630005d76398cfcc889ed329122559f55ad084b58d9858585426040516111e594939291906128a8565b60405180910390a15050505050565b600060205280600052604060002060009150905080600001549080600101805461121d90612a71565b80601f016020809104026020016040519081016040528092919081815260200182805461124990612a71565b80156112965780601f1061126b57610100808354040283529160200191611296565b820191906000526020600020905b81548152906001019060200180831161127957829003601f168201915b5050505050908060020160009054906101000a900460ff16908060020160019054906101000a900473ffffffffffffffffffffffffffffffffffffffff16905084565b813373ffffffffffffffffffffffffffffffffffffffff1660008083815260200190815260200160002060020160019054906101000a900473ffffffffffffffffffffffffffffffffffffffff1673ffffffffffffffffffffffffffffffffffffffff161461137d576040517f08c379a0000000000000000000000000000000000000000000000000000000008152600401611374906126c8565b60405180910390fd5b8160008085815260200190815260200160002060020160016101000a81548173ffffffffffffffffffffffffffffffffffffffff021916908373ffffffffffffffffffffffffffffffffffffffff1602179055507f341aa48f481d1bfe6b0420acbbf708fb50d404d7339ae91fc75e51a77f1363cb8360008086815260200190815260200160002060020160009054906101000a900460ff168460405161142693929190612825565b60405180910390a1505050565b600360009054906101000a900473ffffffffffffffffffffffffffffffffffffffff1681565b60018180516020810182018051848252602083016020850120818352809550505050505060009150905080600001805461149290612a71565b80601f01602080910402602001604051908101604052809291908181526020018280546114be90612a71565b801561150b5780601f106114e05761010080835404028352916020019161150b565b820191906000526020600020905b8154815290600101906020018083116114ee57829003601f168201915b50505050509080600101805461152090612a71565b80601f016020809104026020016040519081016040528092919081815260200182805461154c90612a71565b80156115995780601f1061156e57610100808354040283529160200191611599565b820191906000526020600020905b81548152906001019060200180831161157c57829003601f168201915b5050505050908060020160009054906101000a900473ffffffffffffffffffffffffffffffffffffffff16908060020160149054906101000a900460ff16908060030180546115e790612a71565b80601f016020809104026020016040519081016040528092919081815260200182805461161390612a71565b80156116605780601f1061163557610100808354040283529160200191611660565b820191906000526020600020905b81548152906001019060200180831161164357829003601f168201915b5050505050905085565b8160018160405161167b919061251c565b908152602001604051809103902060020160009054906101000a900473ffffffffffffffffffffffffffffffffffffffff1673ffffffffffffffffffffffffffffffffffffffff163373ffffffffffffffffffffffffffffffffffffffff161461171a576040517f08c379a0000000000000000000000000000000000000000000000000000000008152600401611711906127a8565b60405180910390fd5b600060018460405161172c919061251c565b9081526020016040518091039020600001805461174890612a71565b90501161178a576040517f08c379a0000000000000000000000000000000000000000000000000000000008152600401611781906127c8565b60405180910390fd5b8160018460405161179b919061251c565b908152602001604051809103902060030190805190602001906117bf929190611d5a565b507f87f806108f4707ca6343979f80e4ba35535ccde5b508d519f51b5c129679659583836040516117f19291906125e4565b60405180910390a1505050565b813373ffffffffffffffffffffffffffffffffffffffff1660008083815260200190815260200160002060020160019054906101000a900473ffffffffffffffffffffffffffffffffffffffff1673ffffffffffffffffffffffffffffffffffffffff16146118a2576040517f08c379a0000000000000000000000000000000000000000000000000000000008152600401611899906126c8565b60405180910390fd5b8160008085815260200190815260200160002060020160006101000a81548160ff02191690836007811115611900577f4e487b7100000000000000000000000000000000000000000000000000000000600052602160045260246000fd5b02179055507f341aa48f481d1bfe6b0420acbbf708fb50d404d7339ae91fc75e51a77f1363cb83833360405161193893929190612825565b60405180910390a1505050565b61194d611de0565b60018260405161195d919061251c565b90815260200160405180910390206040518060a001604052908160008201805461198690612a71565b80601f01602080910402602001604051908101604052809291908181526020018280546119b290612a71565b80156119ff5780601f106119d4576101008083540402835291602001916119ff565b820191906000526020600020905b8154815290600101906020018083116119e257829003601f168201915b50505050508152602001600182018054611a1890612a71565b80601f0160208091040260200160405190810160405280929190818152602001828054611a4490612a71565b8015611a915780601f10611a6657610100808354040283529160200191611a91565b820191906000526020600020905b815481529060010190602001808311611a7457829003601f168201915b505050505081526020016002820160009054906101000a900473ffffffffffffffffffffffffffffffffffffffff1673ffffffffffffffffffffffffffffffffffffffff1673ffffffffffffffffffffffffffffffffffffffff1681526020016002820160149054906101000a900460ff16151515158152602001600382018054611b1b90612a71565b80601f0160208091040260200160405190810160405280929190818152602001828054611b4790612a71565b8015611b945780601f10611b6957610100808354040283529160200191611b94565b820191906000526020600020905b815481529060010190602001808311611b7757829003601f168201915b5050505050815250509050919050565b60045481565b60026020528160005260406000208181548110611bc657600080fd5b906000526020600020906003020160009150915050806000018054611bea90612a71565b80601f0160208091040260200160405190810160405280929190818152602001828054611c1690612a71565b8015611c635780601f10611c3857610100808354040283529160200191611c63565b820191906000526020600020905b815481529060010190602001808311611c4657829003601f168201915b505050505090806001015490806002018054611c7e90612a71565b80601f0160208091040260200160405190810160405280929190818152602001828054611caa90612a71565b8015611cf75780601f10611ccc57610100808354040283529160200191611cf7565b820191906000526020600020905b815481529060010190602001808311611cda57829003601f168201915b5050505050905083565b60008173ffffffffffffffffffffffffffffffffffffffff166108fc66038d7ea4c680009081150290604051600060405180830381858888f19350505050158015611d50573d6000803e3d6000fd5b5060019050919050565b828054611d6690612a71565b90600052602060002090601f016020900481019282611d885760008555611dcf565b82601f10611da157805160ff1916838001178555611dcf565b82800160010185558215611dcf579182015b82811115611dce578251825591602001919060010190611db3565b5b509050611ddc9190611e27565b5090565b6040518060a001604052806060815260200160608152602001600073ffffffffffffffffffffffffffffffffffffffff168152602001600015158152602001606081525090565b5b80821115611e40576000816000905550600101611e28565b5090565b6000611e57611e5284612920565b6128fb565b905082815260208101848484011115611e6f57600080fd5b611e7a848285612a2f565b509392505050565b600081359050611e9181612d6f565b92915050565b600081359050611ea681612d86565b92915050565b600082601f830112611ebd57600080fd5b8135611ecd848260208601611e44565b91505092915050565b600081359050611ee581612d96565b92915050565b600060208284031215611efd57600080fd5b6000611f0b84828501611e82565b91505092915050565b600060208284031215611f2657600080fd5b600082013567ffffffffffffffff811115611f4057600080fd5b611f4c84828501611eac565b91505092915050565b60008060408385031215611f6857600080fd5b600083013567ffffffffffffffff811115611f8257600080fd5b611f8e85828601611eac565b925050602083013567ffffffffffffffff811115611fab57600080fd5b611fb785828601611eac565b9150509250929050565b60008060408385031215611fd457600080fd5b600083013567ffffffffffffffff811115611fee57600080fd5b611ffa85828601611eac565b925050602061200b85828601611ed6565b9150509250929050565b60006020828403121561202757600080fd5b600061203584828501611ed6565b91505092915050565b6000806040838503121561205157600080fd5b600061205f85828601611ed6565b925050602061207085828601611e82565b9150509250929050565b6000806040838503121561208d57600080fd5b600061209b85828601611ed6565b92505060206120ac85828601611e97565b9150509250929050565b6000806000606084860312156120cb57600080fd5b60006120d986828701611ed6565b935050602084013567ffffffffffffffff8111156120f657600080fd5b61210286828701611eac565b925050604084013567ffffffffffffffff81111561211f57600080fd5b61212b86828701611eac565b9150509250925092565b6000806040838503121561214857600080fd5b600061215685828601611ed6565b925050602061216785828601611ed6565b9150509250929050565b600061217d8383612423565b905092915050565b61218e816129c2565b82525050565b61219d816129c2565b82525050565b60006121ae82612961565b6121b88185612984565b9350836020820285016121ca85612951565b8060005b8581101561220657848403895281516121e78582612171565b94506121f283612977565b925060208a019950506001810190506121ce565b50829750879550505050505092915050565b612221816129d4565b82525050565b612230816129d4565b82525050565b61223f81612a1d565b82525050565b60006122508261296c565b61225a8185612995565b935061226a818560208601612a3e565b61227381612bd9565b840191505092915050565b60006122898261296c565b61229381856129a6565b93506122a3818560208601612a3e565b6122ac81612bd9565b840191505092915050565b60006122c28261296c565b6122cc81856129b7565b93506122dc818560208601612a3e565b80840191505092915050565b60006122f56015836129a6565b915061230082612bea565b602082019050919050565b60006123186015836129a6565b915061232382612c13565b602082019050919050565b600061233b6016836129a6565b915061234682612c3c565b602082019050919050565b600061235e6018836129a6565b915061236982612c65565b602082019050919050565b60006123816017836129a6565b915061238c82612c8e565b602082019050919050565b60006123a46012836129a6565b91506123af82612cb7565b602082019050919050565b60006123c76015836129a6565b91506123d282612ce0565b602082019050919050565b60006123ea600e836129a6565b91506123f582612d09565b602082019050919050565b600061240d6012836129a6565b915061241882612d32565b602082019050919050565b600060608301600083015184820360008601526124408282612245565b915050602083015161245560208601826124fe565b506040830151848203604086015261246d8282612245565b9150508091505092915050565b600060a08301600083015184820360008601526124978282612245565b915050602083015184820360208601526124b18282612245565b91505060408301516124c66040860182612185565b5060608301516124d96060860182612218565b50608083015184820360808601526124f18282612245565b9150508091505092915050565b61250781612a13565b82525050565b61251681612a13565b82525050565b600061252882846122b7565b915081905092915050565b60006020820190506125486000830184612194565b92915050565b60006040820190506125636000830185612194565b612570602083018461250d565b9392505050565b6000602082019050818103600083015261259181846121a3565b905092915050565b60006020820190506125ae6000830184612227565b92915050565b600060408201905081810360008301526125ce818561227e565b90506125dd6020830184612194565b9392505050565b600060408201905081810360008301526125fe818561227e565b90508181036020830152612612818461227e565b90509392505050565b600060a0820190508181036000830152612635818861227e565b90508181036020830152612649818761227e565b90506126586040830186612194565b6126656060830185612227565b8181036080830152612677818461227e565b90509695505050505050565b6000606082019050818103600083015261269d818661227e565b90506126ac602083018561250d565b81810360408301526126be818461227e565b9050949350505050565b600060208201905081810360008301526126e1816122e8565b9050919050565b600060208201905081810360008301526127018161230b565b9050919050565b600060208201905081810360008301526127218161232e565b9050919050565b6000602082019050818103600083015261274181612351565b9050919050565b6000602082019050818103600083015261276181612374565b9050919050565b6000602082019050818103600083015261278181612397565b9050919050565b600060208201905081810360008301526127a1816123ba565b9050919050565b600060208201905081810360008301526127c1816123dd565b9050919050565b600060208201905081810360008301526127e181612400565b9050919050565b60006020820190508181036000830152612802818461247a565b905092915050565b600060208201905061281f600083018461250d565b92915050565b600060608201905061283a600083018661250d565b6128476020830185612236565b6128546040830184612194565b949350505050565b6000608082019050612871600083018761250d565b8181036020830152612883818661227e565b90506128926040830185612236565b61289f6060830184612194565b95945050505050565b60006080820190506128bd600083018761250d565b81810360208301526128cf818661227e565b905081810360408301526128e3818561227e565b90506128f2606083018461250d565b95945050505050565b6000612905612916565b90506129118282612aa3565b919050565b6000604051905090565b600067ffffffffffffffff82111561293b5761293a612baa565b5b61294482612bd9565b9050602081019050919050565b6000819050602082019050919050565b600081519050919050565b600081519050919050565b6000602082019050919050565b600082825260208201905092915050565b600082825260208201905092915050565b600082825260208201905092915050565b600081905092915050565b60006129cd826129f3565b9050919050565b60008115159050919050565b60008190506129ee82612d5b565b919050565b600073ffffffffffffffffffffffffffffffffffffffff82169050919050565b6000819050919050565b6000612a28826129e0565b9050919050565b82818337600083830152505050565b60005b83811015612a5c578082015181840152602081019050612a41565b83811115612a6b576000848401525b50505050565b60006002820490506001821680612a8957607f821691505b60208210811415612a9d57612a9c612b7b565b5b50919050565b612aac82612bd9565b810181811067ffffffffffffffff82111715612acb57612aca612baa565b5b80604052505050565b6000612adf82612a13565b91507fffffffffffffffffffffffffffffffffffffffffffffffffffffffffffffffff821415612b1257612b11612b1d565b5b600182019050919050565b7f4e487b7100000000000000000000000000000000000000000000000000000000600052601160045260246000fd5b7f4e487b7100000000000000000000000000000000000000000000000000000000600052602160045260246000fd5b7f4e487b7100000000000000000000000000000000000000000000000000000000600052602260045260246000fd5b7f4e487b7100000000000000000000000000000000000000000000000000000000600052604160045260246000fd5b6000601f19601f8301169050919050565b7f4e6f74207468652070726f64756374206f776e65720000000000000000000000600082015250565b7f4d6174657269616c206e6f742076657269666965640000000000000000000000600082015250565b7f50726f64756374206e6f7420696e207472616e73697400000000000000000000600082015250565b7f496e76616c696420737570706c69657220616464726573730000000000000000600082015250565b7f4d6174657269616c20616c726561647920657869737473000000000000000000600082015250565b7f537570706c696572206e6f7420666f756e640000000000000000000000000000600082015250565b7f537570706c696572206e6f742076657269666965640000000000000000000000600082015250565b7f4e6f7420617574686f72697a6564000000000000000000000000000000000000600082015250565b7f4d6174657269616c206e6f7420666f756e640000000000000000000000000000600082015250565b60088110612d6c57612d6b612b4c565b5b50565b612d78816129c2565b8114612d8357600080fd5b50565b60088110612d9357600080fd5b50565b612d9f81612a13565b8114612daa57600080fd5b5056fea2646970667358221220b52f81bcc6f63aeda4577e0a1d66cc3bd6eee766c0e263cd02b391bb91b0af2b64736f6c63430008040033",
  "linkReferences": {},
  "deployedLinkReferences": {}
}