{
  "_format": "hh-sol-artifact-1",
  "contractName": "EscrowFactory",
  "sourceName": "contracts/EscrowFactory.sol",
  "abi": [
    {
      "inputs": [],
      "stateMutability": "nonpayable",
      "type": "constructor"
    },
    {
      "anonymous": false,
      "inputs": [
        {
          "indexed": true,
          "internalType": "address",
          "name": "basketAddress",
          "type": "address"
        },
        {
          "indexed": true,
          "internalType": "address",
          "name": "owner",
          "type": "address"
        }
      ],
      "name": "EscrowDeployed",
      "type": "event"
    },
    {
      "anonymous": false,
      "inputs": [
        {
          "indexed": false,
          "internalType": "uint8",
          "name": "version",
          "type": "uint8"
        }
      ],
      "name": "Initialized",
      "type": "event"
    },
    {
      "anonymous": false,
      "inputs": [
        {
          "indexed": true,
          "internalType": "address",
          "name": "previousOwner",
          "type": "address"
        },
        {
          "indexed": true,
          "internalType": "address",
          "name": "newOwner",
          "type": "address"
        }
      ],
      "name": "OwnershipTransferred",
      "type": "event"
    },
    {
      "inputs": [
        {
          "internalType": "address",
          "name": "basketContractAddress",
          "type": "address"
        }
      ],
      "name": "createEscrow",
      "outputs": [],
      "stateMutability": "nonpayable",
      "type": "function"
    },
    {
      "inputs": [
        {
          "internalType": "uint256",
          "name": "",
          "type": "uint256"
        }
      ],
      "name": "deployedEscrows",
      "outputs": [
        {
          "internalType": "address",
          "name": "",
          "type": "address"
        }
      ],
      "stateMutability": "view",
      "type": "function"
    },
    {
      "inputs": [],
      "name": "getDeployedEscrow",
      "outputs": [
        {
          "internalType": "address[]",
          "name": "",
          "type": "address[]"
        }
      ],
      "stateMutability": "view",
      "type": "function"
    },
    {
      "inputs": [],
      "name": "initialize",
      "outputs": [],
      "stateMutability": "nonpayable",
      "type": "function"
    },
    {
      "inputs": [],
      "name": "owner",
      "outputs": [
        {
          "internalType": "address",
          "name": "",
          "type": "address"
        }
      ],
      "stateMutability": "view",
      "type": "function"
    },
    {
      "inputs": [],
      "name": "renounceOwnership",
      "outputs": [],
      "stateMutability": "nonpayable",
      "type": "function"
    },
    {
      "inputs": [
        {
          "internalType": "address",
          "name": "newOwner",
          "type": "address"
        }
      ],
      "name": "transferOwnership",
      "outputs": [],
      "stateMutability": "nonpayable",
      "type": "function"
    }
  ],
  "bytecode": "0x608060405234801561001057600080fd5b5061001f61002460201b60201c565b6101be565b600060019054906101000a900460ff1615610074576040517f08c379a000000000000000000000000000000000000000000000000000000000815260040161006b90610116565b60405180910390fd5b60ff801660008054906101000a900460ff1660ff16146100e25760ff6000806101000a81548160ff021916908360ff1602179055507f7f26b83ff96e1f2b6a682f133852f6798a09c465da95921460cefb384740249860ff6040516100d99190610136565b60405180910390a15b565b60006100f1602783610151565b91506100fc8261016f565b604082019050919050565b61011081610162565b82525050565b6000602082019050818103600083015261012f816100e4565b9050919050565b600060208201905061014b6000830184610107565b92915050565b600082825260208201905092915050565b600060ff82169050919050565b7f496e697469616c697a61626c653a20636f6e747261637420697320696e69746960008201527f616c697a696e6700000000000000000000000000000000000000000000000000602082015250565b61232180620001ce6000396000f3fe608060405234801561001057600080fd5b506004361061007d5760003560e01c80638129fc1c1161005b5780638129fc1c146100da5780638da5cb5b146100e4578063f2fde38b14610102578063f6a8419e1461011e5761007d565b8063323f11421461008257806362f4f48b146100b2578063715018a6146100d0575b600080fd5b61009c6004803603810190610097919061078b565b61013a565b6040516100a991906108e3565b60405180910390f35b6100ba610179565b6040516100c79190610927565b60405180910390f35b6100d8610207565b005b6100e261021b565b005b6100ec610359565b6040516100f991906108e3565b60405180910390f35b61011c60048036038101906101179190610762565b610383565b005b61013860048036038101906101339190610762565b610407565b005b6065818154811061014a57600080fd5b906000526020600020016000915054906101000a900473ffffffffffffffffffffffffffffffffffffffff1681565b606060658054806020026020016040519081016040528092919081815260200182805480156101fd57602002820191906000526020600020905b8160009054906101000a900473ffffffffffffffffffffffffffffffffffffffff1673ffffffffffffffffffffffffffffffffffffffff16815260200190600101908083116101b3575b5050505050905090565b61020f610501565b610219600061057f565b565b60008060019054906101000a900460ff1615905080801561024c5750600160008054906101000a900460ff1660ff16105b80610279575061025b30610645565b1580156102785750600160008054906101000a900460ff1660ff16145b5b6102b8576040517f08c379a00000000000000000000000000000000000000000000000000000000081526004016102af90610984565b60405180910390fd5b60016000806101000a81548160ff021916908360ff16021790555080156102f5576001600060016101000a81548160ff0219169083151502179055505b6102fd610668565b80156103565760008060016101000a81548160ff0219169083151502179055507f7f26b83ff96e1f2b6a682f133852f6798a09c465da95921460cefb3847402498600160405161034d9190610949565b60405180910390a15b50565b6000603360009054906101000a900473ffffffffffffffffffffffffffffffffffffffff16905090565b61038b610501565b600073ffffffffffffffffffffffffffffffffffffffff168173ffffffffffffffffffffffffffffffffffffffff1614156103fb576040517f08c379a00000000000000000000000000000000000000000000000000000000081526004016103f290610964565b60405180910390fd5b6104048161057f565b50565b600081336040516104179061072a565b6104229291906108fe565b604051809103906000f08015801561043e573d6000803e3d6000fd5b5090506065819080600181540180825580915050600190039060005260206000200160009091909190916101000a81548173ffffffffffffffffffffffffffffffffffffffff021916908373ffffffffffffffffffffffffffffffffffffffff1602179055503373ffffffffffffffffffffffffffffffffffffffff168173ffffffffffffffffffffffffffffffffffffffff167e21c494a404e0badb71d5d51d10ae4924bfa8bdd9dbb6cb89e60b4fb1210f0960405160405180910390a35050565b6105096106c1565b73ffffffffffffffffffffffffffffffffffffffff16610527610359565b73ffffffffffffffffffffffffffffffffffffffff161461057d576040517f08c379a0000000000000000000000000000000000000000000000000000000008152600401610574906109a4565b60405180910390fd5b565b6000603360009054906101000a900473ffffffffffffffffffffffffffffffffffffffff16905081603360006101000a81548173ffffffffffffffffffffffffffffffffffffffff021916908373ffffffffffffffffffffffffffffffffffffffff1602179055508173ffffffffffffffffffffffffffffffffffffffff168173ffffffffffffffffffffffffffffffffffffffff167f8be0079c531659141344cd1fd0a4f28419497f9722a3daafe3b4186f6b6457e060405160405180910390a35050565b6000808273ffffffffffffffffffffffffffffffffffffffff163b119050919050565b600060019054906101000a900460ff166106b7576040517f08c379a00000000000000000000000000000000000000000000000000000000081526004016106ae906109c4565b60405180910390fd5b6106bf6106c9565b565b600033905090565b600060019054906101000a900460ff16610718576040517f08c379a000000000000000000000000000000000000000000000000000000000815260040161070f906109c4565b60405180910390fd5b6107286107236106c1565b61057f565b565b61171e8062000bce83390190565b60008135905061074781610b9f565b92915050565b60008135905061075c81610bb6565b92915050565b60006020828403121561077457600080fd5b600061078284828501610738565b91505092915050565b60006020828403121561079d57600080fd5b60006107ab8482850161074d565b91505092915050565b60006107c083836107cc565b60208301905092915050565b6107d581610a2e565b82525050565b6107e481610a2e565b82525050565b60006107f5826109f4565b6107ff8185610a0c565b935061080a836109e4565b8060005b8381101561083b57815161082288826107b4565b975061082d836109ff565b92505060018101905061080e565b5085935050505092915050565b61085181610a77565b82525050565b6000610864602683610a1d565b915061086f82610a89565b604082019050919050565b6000610887602e83610a1d565b915061089282610ad8565b604082019050919050565b60006108aa602083610a1d565b91506108b582610b27565b602082019050919050565b60006108cd602b83610a1d565b91506108d882610b50565b604082019050919050565b60006020820190506108f860008301846107db565b92915050565b600060408201905061091360008301856107db565b61092060208301846107db565b9392505050565b6000602082019050818103600083015261094181846107ea565b905092915050565b600060208201905061095e6000830184610848565b92915050565b6000602082019050818103600083015261097d81610857565b9050919050565b6000602082019050818103600083015261099d8161087a565b9050919050565b600060208201905081810360008301526109bd8161089d565b9050919050565b600060208201905081810360008301526109dd816108c0565b9050919050565b6000819050602082019050919050565b600081519050919050565b6000602082019050919050565b600082825260208201905092915050565b600082825260208201905092915050565b6000610a3982610a40565b9050919050565b600073ffffffffffffffffffffffffffffffffffffffff82169050919050565b6000819050919050565b600060ff82169050919050565b6000610a8282610a6a565b9050919050565b7f4f776e61626c653a206e6577206f776e657220697320746865207a65726f206160008201527f6464726573730000000000000000000000000000000000000000000000000000602082015250565b7f496e697469616c697a61626c653a20636f6e747261637420697320616c72656160008201527f647920696e697469616c697a6564000000000000000000000000000000000000602082015250565b7f4f776e61626c653a2063616c6c6572206973206e6f7420746865206f776e6572600082015250565b7f496e697469616c697a61626c653a20636f6e7472616374206973206e6f74206960008201527f6e697469616c697a696e67000000000000000000000000000000000000000000602082015250565b610ba881610a2e565b8114610bb357600080fd5b50565b610bbf81610a60565b8114610bca57600080fd5b5056fe60806040523480156200001157600080fd5b506040516200171e3803806200171e8339818101604052810190620000379190620000d7565b80600160006101000a81548173ffffffffffffffffffffffffffffffffffffffff021916908373ffffffffffffffffffffffffffffffffffffffff160217905550816000806101000a81548173ffffffffffffffffffffffffffffffffffffffff021916908373ffffffffffffffffffffffffffffffffffffffff160217905550505062000166565b600081519050620000d1816200014c565b92915050565b60008060408385031215620000eb57600080fd5b6000620000fb85828601620000c0565b92505060206200010e85828601620000c0565b9150509250929050565b600062000125826200012c565b9050919050565b600073ffffffffffffffffffffffffffffffffffffffff82169050919050565b620001578162000118565b81146200016357600080fd5b50565b6115a880620001766000396000f3fe608060405234801561001057600080fd5b506004361061007d5760003560e01c8063bbaf3b531161005b578063bbaf3b53146100ec578063bfb281db14610108578063ce606ee014610138578063d10908d8146101565761007d565b806307e2cb6d1461008257806364da15ba1461009e578063b43f6cbb146100bc575b600080fd5b61009c60048036038101906100979190610eaa565b610172565b005b6100a66105a1565b6040516100b391906110ad565b60405180910390f35b6100d660048036038101906100d19190610dd0565b6105c5565b6040516100e3919061129f565b60405180910390f35b61010660048036038101906101019190610e0c565b61064c565b005b610122600480360381019061011d9190610dd0565b61095e565b60405161012f919061129f565b60405180910390f35b610140610983565b60405161014d91906110ad565b60405180910390f35b610170600480360381019061016b9190610e5b565b6109a9565b005b600160009054906101000a900473ffffffffffffffffffffffffffffffffffffffff1673ffffffffffffffffffffffffffffffffffffffff163373ffffffffffffffffffffffffffffffffffffffff1614610202576040517f08c379a00000000000000000000000000000000000000000000000000000000081526004016101f9906111ff565b60405180910390fd5b6000819050868173ffffffffffffffffffffffffffffffffffffffff1663c172ad368a876040518363ffffffff1660e01b81526004016102439291906110c8565b60206040518083038186803b15801561025b57600080fd5b505afa15801561026f573d6000803e3d6000fd5b505050506040513d601f19601f820116820180604052508101906102939190610f71565b10156102d4576040517f08c379a00000000000000000000000000000000000000000000000000000000081526004016102cb9061127f565b60405180910390fd5b84600260008873ffffffffffffffffffffffffffffffffffffffff1673ffffffffffffffffffffffffffffffffffffffff16815260200190815260200160002060008573ffffffffffffffffffffffffffffffffffffffff1673ffffffffffffffffffffffffffffffffffffffff168152602001908152602001600020541015610393576040517f08c379a000000000000000000000000000000000000000000000000000000000815260040161038a9061125f565b60405180910390fd5b8073ffffffffffffffffffffffffffffffffffffffff16639da7db988789876040518463ffffffff1660e01b81526004016103d093929190611188565b600060405180830381600087803b1580156103ea57600080fd5b505af11580156103fe573d6000803e3d6000fd5b5050505084600260008873ffffffffffffffffffffffffffffffffffffffff1673ffffffffffffffffffffffffffffffffffffffff16815260200190815260200160002060008573ffffffffffffffffffffffffffffffffffffffff1673ffffffffffffffffffffffffffffffffffffffff168152602001908152602001600020600082825461048e91906112cb565b9250508190555060008054906101000a900473ffffffffffffffffffffffffffffffffffffffff1673ffffffffffffffffffffffffffffffffffffffff1663a9059cbb89876040518363ffffffff1660e01b81526004016104f092919061115f565b602060405180830381600087803b15801561050a57600080fd5b505af115801561051e573d6000803e3d6000fd5b505050506040513d601f19601f820116820180604052508101906105429190610f48565b50848673ffffffffffffffffffffffffffffffffffffffff16887fa61f602c7b921d7f9d0587bef4f526820f2b9b2ec9a27ed30089a5de1210d8c18b888860405161058f939291906110f1565b60405180910390a45050505050505050565b60008054906101000a900473ffffffffffffffffffffffffffffffffffffffff1681565b6000600260008473ffffffffffffffffffffffffffffffffffffffff1673ffffffffffffffffffffffffffffffffffffffff16815260200190815260200160002060008373ffffffffffffffffffffffffffffffffffffffff1673ffffffffffffffffffffffffffffffffffffffff16815260200190815260200160002054905092915050565b600160009054906101000a900473ffffffffffffffffffffffffffffffffffffffff1673ffffffffffffffffffffffffffffffffffffffff163373ffffffffffffffffffffffffffffffffffffffff16146106dc576040517f08c379a00000000000000000000000000000000000000000000000000000000081526004016106d3906111ff565b60405180910390fd5b6000829050818173ffffffffffffffffffffffffffffffffffffffff1663dd62ed3e86306040518363ffffffff1660e01b815260040161071d9291906110c8565b60206040518083038186803b15801561073557600080fd5b505afa158015610749573d6000803e3d6000fd5b505050506040513d601f19601f8201168201806040525081019061076d9190610f71565b10156107ae576040517f08c379a00000000000000000000000000000000000000000000000000000000081526004016107a59061123f565b60405180910390fd5b8073ffffffffffffffffffffffffffffffffffffffff166323b872dd8530856040518463ffffffff1660e01b81526004016107eb93929190611128565b602060405180830381600087803b15801561080557600080fd5b505af1158015610819573d6000803e3d6000fd5b505050506040513d601f19601f8201168201806040525081019061083d9190610f48565b61087c576040517f08c379a0000000000000000000000000000000000000000000000000000000008152600401610873906111df565b60405180910390fd5b81600260008673ffffffffffffffffffffffffffffffffffffffff1673ffffffffffffffffffffffffffffffffffffffff16815260200190815260200160002060008573ffffffffffffffffffffffffffffffffffffffff1673ffffffffffffffffffffffffffffffffffffffff16815260200190815260200160002081905550818373ffffffffffffffffffffffffffffffffffffffff168573ffffffffffffffffffffffffffffffffffffffff167f9598e9d4e192af28607a51f7bca194dfa1ffe84da77d6149c58a40ad366fffdc60405160405180910390a450505050565b6002602052816000526040600020602052806000526040600020600091509150505481565b600160009054906101000a900473ffffffffffffffffffffffffffffffffffffffff1681565b600160009054906101000a900473ffffffffffffffffffffffffffffffffffffffff1673ffffffffffffffffffffffffffffffffffffffff163373ffffffffffffffffffffffffffffffffffffffff1614610a39576040517f08c379a0000000000000000000000000000000000000000000000000000000008152600401610a30906111ff565b60405180910390fd5b6000600260008573ffffffffffffffffffffffffffffffffffffffff1673ffffffffffffffffffffffffffffffffffffffff16815260200190815260200160002060008373ffffffffffffffffffffffffffffffffffffffff1673ffffffffffffffffffffffffffffffffffffffff1681526020019081526020016000205411610af8576040517f08c379a0000000000000000000000000000000000000000000000000000000008152600401610aef906111bf565b60405180910390fd5b81600260008573ffffffffffffffffffffffffffffffffffffffff1673ffffffffffffffffffffffffffffffffffffffff16815260200190815260200160002060008373ffffffffffffffffffffffffffffffffffffffff1673ffffffffffffffffffffffffffffffffffffffff168152602001908152602001600020541015610bb7576040517f08c379a0000000000000000000000000000000000000000000000000000000008152600401610bae9061121f565b60405180910390fd5b600081905082600260008673ffffffffffffffffffffffffffffffffffffffff1673ffffffffffffffffffffffffffffffffffffffff16815260200190815260200160002060008473ffffffffffffffffffffffffffffffffffffffff1673ffffffffffffffffffffffffffffffffffffffff1681526020019081526020016000206000828254610c4891906112cb565b925050819055508073ffffffffffffffffffffffffffffffffffffffff1663a9059cbb85856040518363ffffffff1660e01b8152600401610c8a92919061115f565b602060405180830381600087803b158015610ca457600080fd5b505af1158015610cb8573d6000803e3d6000fd5b505050506040513d601f19601f82011682018060405250810190610cdc9190610f48565b610d1b576040517f08c379a0000000000000000000000000000000000000000000000000000000008152600401610d12906111df565b60405180910390fd5b8173ffffffffffffffffffffffffffffffffffffffff16838573ffffffffffffffffffffffffffffffffffffffff167ff182ea295e6399483515e847699afdebc3e80334784c5a82a28fe73ad82233c160405160405180910390a450505050565b600081359050610d8b8161152d565b92915050565b600081519050610da081611544565b92915050565b600081359050610db58161155b565b92915050565b600081519050610dca8161155b565b92915050565b60008060408385031215610de357600080fd5b6000610df185828601610d7c565b9250506020610e0285828601610d7c565b9150509250929050565b600080600060608486031215610e2157600080fd5b6000610e2f86828701610d7c565b9350506020610e4086828701610d7c565b9250506040610e5186828701610da6565b9150509250925092565b600080600060608486031215610e7057600080fd5b6000610e7e86828701610d7c565b9350506020610e8f86828701610da6565b9250506040610ea086828701610d7c565b9150509250925092565b600080600080600080600060e0888a031215610ec557600080fd5b6000610ed38a828b01610d7c565b9750506020610ee48a828b01610da6565b9650506040610ef58a828b01610d7c565b9550506060610f068a828b01610da6565b9450506080610f178a828b01610d7c565b93505060a0610f288a828b01610d7c565b92505060c0610f398a828b01610d7c565b91505092959891949750929550565b600060208284031215610f5a57600080fd5b6000610f6884828501610d91565b91505092915050565b600060208284031215610f8357600080fd5b6000610f9184828501610dbb565b91505092915050565b610fa3816112ff565b82525050565b6000610fb66017836112ba565b9150610fc182611376565b602082019050919050565b6000610fd9600f836112ba565b9150610fe48261139f565b602082019050919050565b6000610ffc602e836112ba565b9150611007826113c8565b604082019050919050565b600061101f6025836112ba565b915061102a82611417565b604082019050919050565b60006110426014836112ba565b915061104d82611466565b602082019050919050565b60006110656032836112ba565b91506110708261148f565b604082019050919050565b6000611088602e836112ba565b9150611093826114de565b604082019050919050565b6110a78161133d565b82525050565b60006020820190506110c26000830184610f9a565b92915050565b60006040820190506110dd6000830185610f9a565b6110ea6020830184610f9a565b9392505050565b60006060820190506111066000830186610f9a565b6111136020830185610f9a565b6111206040830184610f9a565b949350505050565b600060608201905061113d6000830186610f9a565b61114a6020830185610f9a565b611157604083018461109e565b949350505050565b60006040820190506111746000830185610f9a565b611181602083018461109e565b9392505050565b600060608201905061119d6000830186610f9a565b6111aa602083018561109e565b6111b76040830184610f9a565b949350505050565b600060208201905081810360008301526111d881610fa9565b9050919050565b600060208201905081810360008301526111f881610fcc565b9050919050565b6000602082019050818103600083015261121881610fef565b9050919050565b6000602082019050818103600083015261123881611012565b9050919050565b6000602082019050818103600083015261125881611035565b9050919050565b6000602082019050818103600083015261127881611058565b9050919050565b600060208201905081810360008301526112988161107b565b9050919050565b60006020820190506112b4600083018461109e565b92915050565b600082825260208201905092915050565b60006112d68261133d565b91506112e18361133d565b9250828210156112f4576112f3611347565b5b828203905092915050565b600061130a8261131d565b9050919050565b60008115159050919050565b600073ffffffffffffffffffffffffffffffffffffffff82169050919050565b6000819050919050565b7f4e487b7100000000000000000000000000000000000000000000000000000000600052601160045260246000fd5b7f5573657220686173206e6f7420617574686f72697a6564000000000000000000600082015250565b7f5472616e73666572206661696c65640000000000000000000000000000000000600082015250565b7f4f6e6c792074686520636f6e7472616374206f776e65722063616e2063616c6c60008201527f20746869732066756e6374696f6e000000000000000000000000000000000000602082015250565b7f5573657220686173206e6f7420617574686f72697a656420656e6f756768206160008201527f6d6f756e74000000000000000000000000000000000000000000000000000000602082015250565b7f416c6c6f77616e6365206e6f7420656e6f756768000000000000000000000000600082015250565b7f53656c6c657220646f6573206e6f74206861766520656e6f756768206173736560008201527f747320746f207365746c6c652074726164650000000000000000000000000000602082015250565b7f427579657220646f65736e74206861766520656e6f7567682066756e6473207460008201527f6f207365746c6c65207472616465000000000000000000000000000000000000602082015250565b611536816112ff565b811461154157600080fd5b50565b61154d81611311565b811461155857600080fd5b50565b6115648161133d565b811461156f57600080fd5b5056fea2646970667358221220406732986b14bf0cde0e9ba28e195281e6ef2759a151debd3a1460ec100b513a64736f6c63430008040033a264697066735822122012877c33357ce32e68972a77201902c5b7a556145c1a5cbb1875686fba2d345364736f6c63430008040033",
  "linkReferences": {},
  "deployedLinkReferences": {}
}